{
  "_format": "hh-sol-artifact-1",
  "contractName": "Web3Mint",
  "sourceName": "contracts/Web3Mint.sol",
  "abi": [
    {
      "inputs": [],
      "stateMutability": "nonpayable",
      "type": "constructor"
    },
    {
      "anonymous": false,
      "inputs": [
        {
          "indexed": true,
          "internalType": "address",
          "name": "owner",
          "type": "address"
        },
        {
          "indexed": true,
          "internalType": "address",
          "name": "approved",
          "type": "address"
        },
        {
          "indexed": true,
          "internalType": "uint256",
          "name": "tokenId",
          "type": "uint256"
        }
      ],
      "name": "Approval",
      "type": "event"
    },
    {
      "anonymous": false,
      "inputs": [
        {
          "indexed": true,
          "internalType": "address",
          "name": "owner",
          "type": "address"
        },
        {
          "indexed": true,
          "internalType": "address",
          "name": "operator",
          "type": "address"
        },
        {
          "indexed": false,
          "internalType": "bool",
          "name": "approved",
          "type": "bool"
        }
      ],
      "name": "ApprovalForAll",
      "type": "event"
    },
    {
      "anonymous": false,
      "inputs": [
        {
          "indexed": true,
          "internalType": "address",
          "name": "from",
          "type": "address"
        },
        {
          "indexed": true,
          "internalType": "address",
          "name": "to",
          "type": "address"
        },
        {
          "indexed": true,
          "internalType": "uint256",
          "name": "tokenId",
          "type": "uint256"
        }
      ],
      "name": "Transfer",
      "type": "event"
    },
    {
      "inputs": [
        {
          "internalType": "address",
          "name": "to",
          "type": "address"
        },
        {
          "internalType": "uint256",
          "name": "tokenId",
          "type": "uint256"
        }
      ],
      "name": "approve",
      "outputs": [],
      "stateMutability": "nonpayable",
      "type": "function"
    },
    {
      "inputs": [
        {
          "internalType": "address",
          "name": "owner",
          "type": "address"
        }
      ],
      "name": "balanceOf",
      "outputs": [
        {
          "internalType": "uint256",
          "name": "",
          "type": "uint256"
        }
      ],
      "stateMutability": "view",
      "type": "function"
    },
    {
      "inputs": [
        {
          "internalType": "uint256",
          "name": "tokenId",
          "type": "uint256"
        }
      ],
      "name": "getApproved",
      "outputs": [
        {
          "internalType": "address",
          "name": "",
          "type": "address"
        }
      ],
      "stateMutability": "view",
      "type": "function"
    },
    {
      "inputs": [
        {
          "internalType": "string",
          "name": "carId",
          "type": "string"
        }
      ],
      "name": "getTokensByCarId",
      "outputs": [
        {
          "internalType": "uint256[]",
          "name": "",
          "type": "uint256[]"
        }
      ],
      "stateMutability": "view",
      "type": "function"
    },
    {
      "inputs": [
        {
          "internalType": "address",
          "name": "owner",
          "type": "address"
        },
        {
          "internalType": "address",
          "name": "operator",
          "type": "address"
        }
      ],
      "name": "isApprovedForAll",
      "outputs": [
        {
          "internalType": "bool",
          "name": "",
          "type": "bool"
        }
      ],
      "stateMutability": "view",
      "type": "function"
    },
    {
      "inputs": [
        {
          "internalType": "string",
          "name": "name",
          "type": "string"
        },
        {
          "internalType": "string",
          "name": "imageURI",
          "type": "string"
        },
        {
          "internalType": "string",
          "name": "carId",
          "type": "string"
        },
        {
          "internalType": "string",
          "name": "damageLevel",
          "type": "string"
        }
      ],
      "name": "mintIpfsNFT",
      "outputs": [],
      "stateMutability": "nonpayable",
      "type": "function"
    },
    {
      "inputs": [],
      "name": "name",
      "outputs": [
        {
          "internalType": "string",
          "name": "",
          "type": "string"
        }
      ],
      "stateMutability": "view",
      "type": "function"
    },
    {
      "inputs": [
        {
          "internalType": "uint256",
          "name": "tokenId",
          "type": "uint256"
        }
      ],
      "name": "ownerOf",
      "outputs": [
        {
          "internalType": "address",
          "name": "",
          "type": "address"
        }
      ],
      "stateMutability": "view",
      "type": "function"
    },
    {
      "inputs": [
        {
          "internalType": "address",
          "name": "from",
          "type": "address"
        },
        {
          "internalType": "address",
          "name": "to",
          "type": "address"
        },
        {
          "internalType": "uint256",
          "name": "tokenId",
          "type": "uint256"
        }
      ],
      "name": "safeTransferFrom",
      "outputs": [],
      "stateMutability": "nonpayable",
      "type": "function"
    },
    {
      "inputs": [
        {
          "internalType": "address",
          "name": "from",
          "type": "address"
        },
        {
          "internalType": "address",
          "name": "to",
          "type": "address"
        },
        {
          "internalType": "uint256",
          "name": "tokenId",
          "type": "uint256"
        },
        {
          "internalType": "bytes",
          "name": "data",
          "type": "bytes"
        }
      ],
      "name": "safeTransferFrom",
      "outputs": [],
      "stateMutability": "nonpayable",
      "type": "function"
    },
    {
      "inputs": [
        {
          "internalType": "address",
          "name": "operator",
          "type": "address"
        },
        {
          "internalType": "bool",
          "name": "approved",
          "type": "bool"
        }
      ],
      "name": "setApprovalForAll",
      "outputs": [],
      "stateMutability": "nonpayable",
      "type": "function"
    },
    {
      "inputs": [
        {
          "internalType": "bytes4",
          "name": "interfaceId",
          "type": "bytes4"
        }
      ],
      "name": "supportsInterface",
      "outputs": [
        {
          "internalType": "bool",
          "name": "",
          "type": "bool"
        }
      ],
      "stateMutability": "view",
      "type": "function"
    },
    {
      "inputs": [],
      "name": "symbol",
      "outputs": [
        {
          "internalType": "string",
          "name": "",
          "type": "string"
        }
      ],
      "stateMutability": "view",
      "type": "function"
    },
    {
      "inputs": [
        {
          "internalType": "uint256",
          "name": "index",
          "type": "uint256"
        }
      ],
      "name": "tokenByIndex",
      "outputs": [
        {
          "internalType": "uint256",
          "name": "",
          "type": "uint256"
        }
      ],
      "stateMutability": "view",
      "type": "function"
    },
    {
      "inputs": [
        {
          "internalType": "address",
          "name": "owner",
          "type": "address"
        },
        {
          "internalType": "uint256",
          "name": "index",
          "type": "uint256"
        }
      ],
      "name": "tokenOfOwnerByIndex",
      "outputs": [
        {
          "internalType": "uint256",
          "name": "",
          "type": "uint256"
        }
      ],
      "stateMutability": "view",
      "type": "function"
    },
    {
      "inputs": [
        {
          "internalType": "uint256",
          "name": "_tokenId",
          "type": "uint256"
        }
      ],
      "name": "tokenURI",
      "outputs": [
        {
          "internalType": "string",
          "name": "",
          "type": "string"
        }
      ],
      "stateMutability": "view",
      "type": "function"
    },
    {
      "inputs": [],
      "name": "totalSupply",
      "outputs": [
        {
          "internalType": "uint256",
          "name": "",
          "type": "uint256"
        }
      ],
      "stateMutability": "view",
      "type": "function"
    },
    {
      "inputs": [
        {
          "internalType": "address",
          "name": "from",
          "type": "address"
        },
        {
          "internalType": "address",
          "name": "to",
          "type": "address"
        },
        {
          "internalType": "uint256",
          "name": "tokenId",
          "type": "uint256"
        }
      ],
      "name": "transferFrom",
      "outputs": [],
      "stateMutability": "nonpayable",
      "type": "function"
    }
  ],
  "bytecode": "0x60806040523480156200001157600080fd5b506040518060400160405280600381526020017f4e465400000000000000000000000000000000000000000000000000000000008152506040518060400160405280600381526020017f6e6674000000000000000000000000000000000000000000000000000000000081525081600090816200008f919062000324565b508060019081620000a1919062000324565b5050506200040b565b600081519050919050565b7f4e487b7100000000000000000000000000000000000000000000000000000000600052604160045260246000fd5b7f4e487b7100000000000000000000000000000000000000000000000000000000600052602260045260246000fd5b600060028204905060018216806200012c57607f821691505b602082108103620001425762000141620000e4565b5b50919050565b60008190508160005260206000209050919050565b60006020601f8301049050919050565b600082821b905092915050565b600060088302620001ac7fffffffffffffffffffffffffffffffffffffffffffffffffffffffffffffffff826200016d565b620001b886836200016d565b95508019841693508086168417925050509392505050565b6000819050919050565b6000819050919050565b600062000205620001ff620001f984620001d0565b620001da565b620001d0565b9050919050565b6000819050919050565b6200022183620001e4565b6200023962000230826200020c565b8484546200017a565b825550505050565b600090565b6200025062000241565b6200025d81848462000216565b505050565b5b8181101562000285576200027960008262000246565b60018101905062000263565b5050565b601f821115620002d4576200029e8162000148565b620002a9846200015d565b81016020851015620002b9578190505b620002d1620002c8856200015d565b83018262000262565b50505b505050565b600082821c905092915050565b6000620002f960001984600802620002d9565b1980831691505092915050565b6000620003148383620002e6565b9150826002028217905092915050565b6200032f82620000aa565b67ffffffffffffffff8111156200034b576200034a620000b5565b5b62000357825462000113565b6200036482828562000289565b600060209050601f8311600181146200039c576000841562000387578287015190505b62000393858262000306565b86555062000403565b601f198416620003ac8662000148565b60005b82811015620003d657848901518255600182019150602085019450602081019050620003af565b86831015620003f65784890151620003f2601f891682620002e6565b8355505b6001600288020188555050505b505050505050565b61436b806200041b6000396000f3fe608060405234801561001057600080fd5b50600436106101165760003560e01c80634f6ccce7116100a2578063a22cb46511610071578063a22cb46514610305578063b88d4fde14610321578063c87b56dd1461033d578063ce9910f61461036d578063e985e9c51461039d57610116565b80634f6ccce7146102575780636352211e1461028757806370a08231146102b757806395d89b41146102e757610116565b80630ef3b95e116100e95780630ef3b95e146101b557806318160ddd146101d157806323b872dd146101ef5780632f745c591461020b57806342842e0e1461023b57610116565b806301ffc9a71461011b57806306fdde031461014b578063081812fc14610169578063095ea7b314610199575b600080fd5b610135600480360381019061013091906128cf565b6103cd565b6040516101429190612917565b60405180910390f35b610153610447565b60405161016091906129c2565b60405180910390f35b610183600480360381019061017e9190612a1a565b6104d9565b6040516101909190612a88565b60405180910390f35b6101b360048036038101906101ae9190612acf565b61051f565b005b6101cf60048036038101906101ca9190612c44565b610636565b005b6101d9610788565b6040516101e69190612d2a565b60405180910390f35b61020960048036038101906102049190612d45565b610795565b005b61022560048036038101906102209190612acf565b6107f5565b6040516102329190612d2a565b60405180910390f35b61025560048036038101906102509190612d45565b61089a565b005b610271600480360381019061026c9190612a1a565b6108ba565b60405161027e9190612d2a565b60405180910390f35b6102a1600480360381019061029c9190612a1a565b61092b565b6040516102ae9190612a88565b60405180910390f35b6102d160048036038101906102cc9190612d98565b6109b1565b6040516102de9190612d2a565b60405180910390f35b6102ef610a68565b6040516102fc91906129c2565b60405180910390f35b61031f600480360381019061031a9190612df1565b610afa565b005b61033b60048036038101906103369190612ed2565b610b10565b005b61035760048036038101906103529190612a1a565b610b72565b60405161036491906129c2565b60405180910390f35b61038760048036038101906103829190612f55565b610f06565b604051610394919061305c565b60405180910390f35b6103b760048036038101906103b2919061307e565b6110db565b6040516103c49190612917565b60405180910390f35b60007f780e9d63000000000000000000000000000000000000000000000000000000007bffffffffffffffffffffffffffffffffffffffffffffffffffffffff1916827bffffffffffffffffffffffffffffffffffffffffffffffffffffffff19161480610440575061043f8261116f565b5b9050919050565b606060008054610456906130ed565b80601f0160208091040260200160405190810160405280929190818152602001828054610482906130ed565b80156104cf5780601f106104a4576101008083540402835291602001916104cf565b820191906000526020600020905b8154815290600101906020018083116104b257829003601f168201915b5050505050905090565b60006104e482611251565b6004600083815260200190815260200160002060009054906101000a900473ffffffffffffffffffffffffffffffffffffffff169050919050565b600061052a8261092b565b90508073ffffffffffffffffffffffffffffffffffffffff168373ffffffffffffffffffffffffffffffffffffffff160361059a576040517f08c379a000000000000000000000000000000000000000000000000000000000815260040161059190613190565b60405180910390fd5b8073ffffffffffffffffffffffffffffffffffffffff166105b961129c565b73ffffffffffffffffffffffffffffffffffffffff1614806105e857506105e7816105e261129c565b6110db565b5b610627576040517f08c379a000000000000000000000000000000000000000000000000000000000815260040161061e90613222565b60405180910390fd5b61063183836112a4565b505050565b6000610642600a61135d565b905061064e338261136b565b600b6040518060e001604052808781526020018681526020018581526020014281526020018481526020013373ffffffffffffffffffffffffffffffffffffffff16815260200142815250908060018154018082558091505060019003906000526020600020906007020160009091909190915060008201518160000190816106d791906133ee565b5060208201518160010190816106ed91906133ee565b50604082015181600201908161070391906133ee565b5060608201518160030155608082015181600401908161072391906133ee565b5060a08201518160050160006101000a81548173ffffffffffffffffffffffffffffffffffffffff021916908373ffffffffffffffffffffffffffffffffffffffff16021790555060c082015181600601555050610781600a611389565b5050505050565b6000600880549050905090565b6107a66107a061129c565b8261139f565b6107e5576040517f08c379a00000000000000000000000000000000000000000000000000000000081526004016107dc90613532565b60405180910390fd5b6107f0838383611434565b505050565b6000610800836109b1565b8210610841576040517f08c379a0000000000000000000000000000000000000000000000000000000008152600401610838906135c4565b60405180910390fd5b600660008473ffffffffffffffffffffffffffffffffffffffff1673ffffffffffffffffffffffffffffffffffffffff168152602001908152602001600020600083815260200190815260200160002054905092915050565b6108b583838360405180602001604052806000815250610b10565b505050565b60006108c4610788565b8210610905576040517f08c379a00000000000000000000000000000000000000000000000000000000081526004016108fc90613656565b60405180910390fd5b6008828154811061091957610918613676565b5b90600052602060002001549050919050565b6000806109378361172d565b9050600073ffffffffffffffffffffffffffffffffffffffff168173ffffffffffffffffffffffffffffffffffffffff16036109a8576040517f08c379a000000000000000000000000000000000000000000000000000000000815260040161099f906136f1565b60405180910390fd5b80915050919050565b60008073ffffffffffffffffffffffffffffffffffffffff168273ffffffffffffffffffffffffffffffffffffffff1603610a21576040517f08c379a0000000000000000000000000000000000000000000000000000000008152600401610a1890613783565b60405180910390fd5b600360008373ffffffffffffffffffffffffffffffffffffffff1673ffffffffffffffffffffffffffffffffffffffff168152602001908152602001600020549050919050565b606060018054610a77906130ed565b80601f0160208091040260200160405190810160405280929190818152602001828054610aa3906130ed565b8015610af05780601f10610ac557610100808354040283529160200191610af0565b820191906000526020600020905b815481529060010190602001808311610ad357829003601f168201915b5050505050905090565b610b0c610b0561129c565b838361176a565b5050565b610b21610b1b61129c565b8361139f565b610b60576040517f08c379a0000000000000000000000000000000000000000000000000000000008152600401610b5790613532565b60405180910390fd5b610b6c848484846118d6565b50505050565b60606000600b8381548110610b8a57610b89613676565b5b90600052602060002090600702016040518060e0016040529081600082018054610bb3906130ed565b80601f0160208091040260200160405190810160405280929190818152602001828054610bdf906130ed565b8015610c2c5780601f10610c0157610100808354040283529160200191610c2c565b820191906000526020600020905b815481529060010190602001808311610c0f57829003601f168201915b50505050508152602001600182018054610c45906130ed565b80601f0160208091040260200160405190810160405280929190818152602001828054610c71906130ed565b8015610cbe5780601f10610c9357610100808354040283529160200191610cbe565b820191906000526020600020905b815481529060010190602001808311610ca157829003601f168201915b50505050508152602001600282018054610cd7906130ed565b80601f0160208091040260200160405190810160405280929190818152602001828054610d03906130ed565b8015610d505780601f10610d2557610100808354040283529160200191610d50565b820191906000526020600020905b815481529060010190602001808311610d3357829003601f168201915b5050505050815260200160038201548152602001600482018054610d73906130ed565b80601f0160208091040260200160405190810160405280929190818152602001828054610d9f906130ed565b8015610dec5780601f10610dc157610100808354040283529160200191610dec565b820191906000526020600020905b815481529060010190602001808311610dcf57829003601f168201915b505050505081526020016005820160009054906101000a900473ffffffffffffffffffffffffffffffffffffffff1673ffffffffffffffffffffffffffffffffffffffff1673ffffffffffffffffffffffffffffffffffffffff16815260200160068201548152505090506000610ed58260000151610e6a86611932565b846020015185604001518660800151610e9e8860a0015173ffffffffffffffffffffffffffffffffffffffff166014611a00565b610eab8960c00151611932565b604051602001610ec19796959493929190613a65565b604051602081830303815290604052611c3c565b9050600081604051602001610eea9190613b6e565b6040516020818303038152906040529050809350505050919050565b60606000610f14600a61135d565b905060008167ffffffffffffffff811115610f3257610f31612b19565b5b604051908082528060200260200182016040528015610f605781602001602082028036833780820191505090505b5090506000805b838110156110285785604051602001610f809190613b90565b60405160208183030381529060405280519060200120600b8281548110610faa57610fa9613676565b5b9060005260206000209060070201600201604051602001610fcb9190613c2a565b60405160208183030381529060405280519060200120036110155780838381518110610ffa57610ff9613676565b5b602002602001018181525050818061101190613c70565b9250505b808061102090613c70565b915050610f67565b5060008167ffffffffffffffff81111561104557611044612b19565b5b6040519080825280602002602001820160405280156110735781602001602082028036833780820191505090505b50905060005b828110156110ce5783818151811061109457611093613676565b5b60200260200101518282815181106110af576110ae613676565b5b60200260200101818152505080806110c690613c70565b915050611079565b5080945050505050919050565b6000600560008473ffffffffffffffffffffffffffffffffffffffff1673ffffffffffffffffffffffffffffffffffffffff16815260200190815260200160002060008373ffffffffffffffffffffffffffffffffffffffff1673ffffffffffffffffffffffffffffffffffffffff16815260200190815260200160002060009054906101000a900460ff16905092915050565b60007f80ac58cd000000000000000000000000000000000000000000000000000000007bffffffffffffffffffffffffffffffffffffffffffffffffffffffff1916827bffffffffffffffffffffffffffffffffffffffffffffffffffffffff1916148061123a57507f5b5e139f000000000000000000000000000000000000000000000000000000007bffffffffffffffffffffffffffffffffffffffffffffffffffffffff1916827bffffffffffffffffffffffffffffffffffffffffffffffffffffffff1916145b8061124a575061124982611dd3565b5b9050919050565b61125a81611e3d565b611299576040517f08c379a0000000000000000000000000000000000000000000000000000000008152600401611290906136f1565b60405180910390fd5b50565b600033905090565b816004600083815260200190815260200160002060006101000a81548173ffffffffffffffffffffffffffffffffffffffff021916908373ffffffffffffffffffffffffffffffffffffffff160217905550808273ffffffffffffffffffffffffffffffffffffffff166113178361092b565b73ffffffffffffffffffffffffffffffffffffffff167f8c5be1e5ebec7d5bd14f71427d1e84f3dd0314c0f7b2291e5b200ac8c7c3b92560405160405180910390a45050565b600081600001549050919050565b611385828260405180602001604052806000815250611e7e565b5050565b6001816000016000828254019250508190555050565b6000806113ab8361092b565b90508073ffffffffffffffffffffffffffffffffffffffff168473ffffffffffffffffffffffffffffffffffffffff1614806113ed57506113ec81856110db565b5b8061142b57508373ffffffffffffffffffffffffffffffffffffffff16611413846104d9565b73ffffffffffffffffffffffffffffffffffffffff16145b91505092915050565b8273ffffffffffffffffffffffffffffffffffffffff166114548261092b565b73ffffffffffffffffffffffffffffffffffffffff16146114aa576040517f08c379a00000000000000000000000000000000000000000000000000000000081526004016114a190613d2a565b60405180910390fd5b600073ffffffffffffffffffffffffffffffffffffffff168273ffffffffffffffffffffffffffffffffffffffff1603611519576040517f08c379a000000000000000000000000000000000000000000000000000000000815260040161151090613dbc565b60405180910390fd5b6115268383836001611ed9565b8273ffffffffffffffffffffffffffffffffffffffff166115468261092b565b73ffffffffffffffffffffffffffffffffffffffff161461159c576040517f08c379a000000000000000000000000000000000000000000000000000000000815260040161159390613d2a565b60405180910390fd5b6004600082815260200190815260200160002060006101000a81549073ffffffffffffffffffffffffffffffffffffffff02191690556001600360008573ffffffffffffffffffffffffffffffffffffffff1673ffffffffffffffffffffffffffffffffffffffff168152602001908152602001600020600082825403925050819055506001600360008473ffffffffffffffffffffffffffffffffffffffff1673ffffffffffffffffffffffffffffffffffffffff16815260200190815260200160002060008282540192505081905550816002600083815260200190815260200160002060006101000a81548173ffffffffffffffffffffffffffffffffffffffff021916908373ffffffffffffffffffffffffffffffffffffffff160217905550808273ffffffffffffffffffffffffffffffffffffffff168473ffffffffffffffffffffffffffffffffffffffff167fddf252ad1be2c89b69c2b068fc378daa952ba7f163c4a11628f55a4df523b3ef60405160405180910390a46117288383836001612037565b505050565b60006002600083815260200190815260200160002060009054906101000a900473ffffffffffffffffffffffffffffffffffffffff169050919050565b8173ffffffffffffffffffffffffffffffffffffffff168373ffffffffffffffffffffffffffffffffffffffff16036117d8576040517f08c379a00000000000000000000000000000000000000000000000000000000081526004016117cf90613e28565b60405180910390fd5b80600560008573ffffffffffffffffffffffffffffffffffffffff1673ffffffffffffffffffffffffffffffffffffffff16815260200190815260200160002060008473ffffffffffffffffffffffffffffffffffffffff1673ffffffffffffffffffffffffffffffffffffffff16815260200190815260200160002060006101000a81548160ff0219169083151502179055508173ffffffffffffffffffffffffffffffffffffffff168373ffffffffffffffffffffffffffffffffffffffff167f17307eab39ab6107e8899845ad3d59bd9653f200f220920489ca2b5937696c31836040516118c99190612917565b60405180910390a3505050565b6118e1848484611434565b6118ed8484848461203d565b61192c576040517f08c379a000000000000000000000000000000000000000000000000000000000815260040161192390613eba565b60405180910390fd5b50505050565b606060006001611941846121c4565b01905060008167ffffffffffffffff8111156119605761195f612b19565b5b6040519080825280601f01601f1916602001820160405280156119925781602001600182028036833780820191505090505b509050600082602001820190505b6001156119f5578080600190039150507f3031323334353637383961626364656600000000000000000000000000000000600a86061a8153600a85816119e9576119e8613eda565b5b049450600085036119a0575b819350505050919050565b606060006002836002611a139190613f09565b611a1d9190613f4b565b67ffffffffffffffff811115611a3657611a35612b19565b5b6040519080825280601f01601f191660200182016040528015611a685781602001600182028036833780820191505090505b5090507f300000000000000000000000000000000000000000000000000000000000000081600081518110611aa057611a9f613676565b5b60200101907effffffffffffffffffffffffffffffffffffffffffffffffffffffffffffff1916908160001a9053507f780000000000000000000000000000000000000000000000000000000000000081600181518110611b0457611b03613676565b5b60200101907effffffffffffffffffffffffffffffffffffffffffffffffffffffffffffff1916908160001a90535060006001846002611b449190613f09565b611b4e9190613f4b565b90505b6001811115611bee577f3031323334353637383961626364656600000000000000000000000000000000600f861660108110611b9057611b8f613676565b5b1a60f81b828281518110611ba757611ba6613676565b5b60200101907effffffffffffffffffffffffffffffffffffffffffffffffffffffffffffff1916908160001a905350600485901c945080611be790613f7f565b9050611b51565b5060008414611c32576040517f08c379a0000000000000000000000000000000000000000000000000000000008152600401611c2990613ff4565b60405180910390fd5b8091505092915050565b606060008251905060008103611c645760405180602001604052806000815250915050611dce565b60006003600283611c759190613f4b565b611c7f9190614014565b6004611c8b9190613f09565b90506000602082611c9c9190613f4b565b67ffffffffffffffff811115611cb557611cb4612b19565b5b6040519080825280601f01601f191660200182016040528015611ce75781602001600182028036833780820191505090505b50905060006040518060600160405280604081526020016142f6604091399050600181016020830160005b86811015611d8b5760038101905062ffffff818a015116603f8160121c168401518060081b905060ff603f83600c1c1686015116810190508060081b905060ff603f8360061c1686015116810190508060081b905060ff603f831686015116810190508060e01b90508084526004840193505050611d12565b506003860660018114611da55760028114611db557611dc0565b613d3d60f01b6002830352611dc0565b603d60f81b60018303525b508484525050819450505050505b919050565b60007f01ffc9a7000000000000000000000000000000000000000000000000000000007bffffffffffffffffffffffffffffffffffffffffffffffffffffffff1916827bffffffffffffffffffffffffffffffffffffffffffffffffffffffff1916149050919050565b60008073ffffffffffffffffffffffffffffffffffffffff16611e5f8361172d565b73ffffffffffffffffffffffffffffffffffffffff1614159050919050565b611e888383612317565b611e95600084848461203d565b611ed4576040517f08c379a0000000000000000000000000000000000000000000000000000000008152600401611ecb90613eba565b60405180910390fd5b505050565b611ee584848484612534565b6001811115611f29576040517f08c379a0000000000000000000000000000000000000000000000000000000008152600401611f20906140b7565b60405180910390fd5b6000829050600073ffffffffffffffffffffffffffffffffffffffff168573ffffffffffffffffffffffffffffffffffffffff1603611f7057611f6b8161253a565b611faf565b8373ffffffffffffffffffffffffffffffffffffffff168573ffffffffffffffffffffffffffffffffffffffff1614611fae57611fad8582612583565b5b5b600073ffffffffffffffffffffffffffffffffffffffff168473ffffffffffffffffffffffffffffffffffffffff1603611ff157611fec816126f0565b612030565b8473ffffffffffffffffffffffffffffffffffffffff168473ffffffffffffffffffffffffffffffffffffffff161461202f5761202e84826127c1565b5b5b5050505050565b50505050565b600061205e8473ffffffffffffffffffffffffffffffffffffffff16612840565b156121b7578373ffffffffffffffffffffffffffffffffffffffff1663150b7a0261208761129c565b8786866040518563ffffffff1660e01b81526004016120a9949392919061412c565b6020604051808303816000875af19250505080156120e557506040513d601f19601f820116820180604052508101906120e2919061418d565b60015b612167573d8060008114612115576040519150601f19603f3d011682016040523d82523d6000602084013e61211a565b606091505b50600081510361215f576040517f08c379a000000000000000000000000000000000000000000000000000000000815260040161215690613eba565b60405180910390fd5b805181602001fd5b63150b7a0260e01b7bffffffffffffffffffffffffffffffffffffffffffffffffffffffff1916817bffffffffffffffffffffffffffffffffffffffffffffffffffffffff1916149150506121bc565b600190505b949350505050565b600080600090507a184f03e93ff9f4daa797ed6e38ed64bf6a1f0100000000000000008310612222577a184f03e93ff9f4daa797ed6e38ed64bf6a1f010000000000000000838161221857612217613eda565b5b0492506040810190505b6d04ee2d6d415b85acef8100000000831061225f576d04ee2d6d415b85acef8100000000838161225557612254613eda565b5b0492506020810190505b662386f26fc10000831061228e57662386f26fc10000838161228457612283613eda565b5b0492506010810190505b6305f5e10083106122b7576305f5e10083816122ad576122ac613eda565b5b0492506008810190505b61271083106122dc5761271083816122d2576122d1613eda565b5b0492506004810190505b606483106122ff57606483816122f5576122f4613eda565b5b0492506002810190505b600a831061230e576001810190505b80915050919050565b600073ffffffffffffffffffffffffffffffffffffffff168273ffffffffffffffffffffffffffffffffffffffff1603612386576040517f08c379a000000000000000000000000000000000000000000000000000000000815260040161237d90614206565b60405180910390fd5b61238f81611e3d565b156123cf576040517f08c379a00000000000000000000000000000000000000000000000000000000081526004016123c690614272565b60405180910390fd5b6123dd600083836001611ed9565b6123e681611e3d565b15612426576040517f08c379a000000000000000000000000000000000000000000000000000000000815260040161241d90614272565b60405180910390fd5b6001600360008473ffffffffffffffffffffffffffffffffffffffff1673ffffffffffffffffffffffffffffffffffffffff16815260200190815260200160002060008282540192505081905550816002600083815260200190815260200160002060006101000a81548173ffffffffffffffffffffffffffffffffffffffff021916908373ffffffffffffffffffffffffffffffffffffffff160217905550808273ffffffffffffffffffffffffffffffffffffffff16600073ffffffffffffffffffffffffffffffffffffffff167fddf252ad1be2c89b69c2b068fc378daa952ba7f163c4a11628f55a4df523b3ef60405160405180910390a4612530600083836001612037565b5050565b50505050565b6008805490506009600083815260200190815260200160002081905550600881908060018154018082558091505060019003906000526020600020016000909190919091505550565b60006001612590846109b1565b61259a9190614292565b905060006007600084815260200190815260200160002054905081811461267f576000600660008673ffffffffffffffffffffffffffffffffffffffff1673ffffffffffffffffffffffffffffffffffffffff168152602001908152602001600020600084815260200190815260200160002054905080600660008773ffffffffffffffffffffffffffffffffffffffff1673ffffffffffffffffffffffffffffffffffffffff168152602001908152602001600020600084815260200190815260200160002081905550816007600083815260200190815260200160002081905550505b6007600084815260200190815260200160002060009055600660008573ffffffffffffffffffffffffffffffffffffffff1673ffffffffffffffffffffffffffffffffffffffff16815260200190815260200160002060008381526020019081526020016000206000905550505050565b600060016008805490506127049190614292565b905060006009600084815260200190815260200160002054905060006008838154811061273457612733613676565b5b90600052602060002001549050806008838154811061275657612755613676565b5b9060005260206000200181905550816009600083815260200190815260200160002081905550600960008581526020019081526020016000206000905560088054806127a5576127a46142c6565b5b6001900381819060005260206000200160009055905550505050565b60006127cc836109b1565b905081600660008573ffffffffffffffffffffffffffffffffffffffff1673ffffffffffffffffffffffffffffffffffffffff168152602001908152602001600020600083815260200190815260200160002081905550806007600084815260200190815260200160002081905550505050565b6000808273ffffffffffffffffffffffffffffffffffffffff163b119050919050565b6000604051905090565b600080fd5b600080fd5b60007fffffffff0000000000000000000000000000000000000000000000000000000082169050919050565b6128ac81612877565b81146128b757600080fd5b50565b6000813590506128c9816128a3565b92915050565b6000602082840312156128e5576128e461286d565b5b60006128f3848285016128ba565b91505092915050565b60008115159050919050565b612911816128fc565b82525050565b600060208201905061292c6000830184612908565b92915050565b600081519050919050565b600082825260208201905092915050565b60005b8381101561296c578082015181840152602081019050612951565b60008484015250505050565b6000601f19601f8301169050919050565b600061299482612932565b61299e818561293d565b93506129ae81856020860161294e565b6129b781612978565b840191505092915050565b600060208201905081810360008301526129dc8184612989565b905092915050565b6000819050919050565b6129f7816129e4565b8114612a0257600080fd5b50565b600081359050612a14816129ee565b92915050565b600060208284031215612a3057612a2f61286d565b5b6000612a3e84828501612a05565b91505092915050565b600073ffffffffffffffffffffffffffffffffffffffff82169050919050565b6000612a7282612a47565b9050919050565b612a8281612a67565b82525050565b6000602082019050612a9d6000830184612a79565b92915050565b612aac81612a67565b8114612ab757600080fd5b50565b600081359050612ac981612aa3565b92915050565b60008060408385031215612ae657612ae561286d565b5b6000612af485828601612aba565b9250506020612b0585828601612a05565b9150509250929050565b600080fd5b600080fd5b7f4e487b7100000000000000000000000000000000000000000000000000000000600052604160045260246000fd5b612b5182612978565b810181811067ffffffffffffffff82111715612b7057612b6f612b19565b5b80604052505050565b6000612b83612863565b9050612b8f8282612b48565b919050565b600067ffffffffffffffff821115612baf57612bae612b19565b5b612bb882612978565b9050602081019050919050565b82818337600083830152505050565b6000612be7612be284612b94565b612b79565b905082815260208101848484011115612c0357612c02612b14565b5b612c0e848285612bc5565b509392505050565b600082601f830112612c2b57612c2a612b0f565b5b8135612c3b848260208601612bd4565b91505092915050565b60008060008060808587031215612c5e57612c5d61286d565b5b600085013567ffffffffffffffff811115612c7c57612c7b612872565b5b612c8887828801612c16565b945050602085013567ffffffffffffffff811115612ca957612ca8612872565b5b612cb587828801612c16565b935050604085013567ffffffffffffffff811115612cd657612cd5612872565b5b612ce287828801612c16565b925050606085013567ffffffffffffffff811115612d0357612d02612872565b5b612d0f87828801612c16565b91505092959194509250565b612d24816129e4565b82525050565b6000602082019050612d3f6000830184612d1b565b92915050565b600080600060608486031215612d5e57612d5d61286d565b5b6000612d6c86828701612aba565b9350506020612d7d86828701612aba565b9250506040612d8e86828701612a05565b9150509250925092565b600060208284031215612dae57612dad61286d565b5b6000612dbc84828501612aba565b91505092915050565b612dce816128fc565b8114612dd957600080fd5b50565b600081359050612deb81612dc5565b92915050565b60008060408385031215612e0857612e0761286d565b5b6000612e1685828601612aba565b9250506020612e2785828601612ddc565b9150509250929050565b600067ffffffffffffffff821115612e4c57612e4b612b19565b5b612e5582612978565b9050602081019050919050565b6000612e75612e7084612e31565b612b79565b905082815260208101848484011115612e9157612e90612b14565b5b612e9c848285612bc5565b509392505050565b600082601f830112612eb957612eb8612b0f565b5b8135612ec9848260208601612e62565b91505092915050565b60008060008060808587031215612eec57612eeb61286d565b5b6000612efa87828801612aba565b9450506020612f0b87828801612aba565b9350506040612f1c87828801612a05565b925050606085013567ffffffffffffffff811115612f3d57612f3c612872565b5b612f4987828801612ea4565b91505092959194509250565b600060208284031215612f6b57612f6a61286d565b5b600082013567ffffffffffffffff811115612f8957612f88612872565b5b612f9584828501612c16565b91505092915050565b600081519050919050565b600082825260208201905092915050565b6000819050602082019050919050565b612fd3816129e4565b82525050565b6000612fe58383612fca565b60208301905092915050565b6000602082019050919050565b600061300982612f9e565b6130138185612fa9565b935061301e83612fba565b8060005b8381101561304f5781516130368882612fd9565b975061304183612ff1565b925050600181019050613022565b5085935050505092915050565b600060208201905081810360008301526130768184612ffe565b905092915050565b600080604083850312156130955761309461286d565b5b60006130a385828601612aba565b92505060206130b485828601612aba565b9150509250929050565b7f4e487b7100000000000000000000000000000000000000000000000000000000600052602260045260246000fd5b6000600282049050600182168061310557607f821691505b602082108103613118576131176130be565b5b50919050565b7f4552433732313a20617070726f76616c20746f2063757272656e74206f776e6560008201527f7200000000000000000000000000000000000000000000000000000000000000602082015250565b600061317a60218361293d565b91506131858261311e565b604082019050919050565b600060208201905081810360008301526131a98161316d565b9050919050565b7f4552433732313a20617070726f76652063616c6c6572206973206e6f7420746f60008201527f6b656e206f776e6572206f7220617070726f76656420666f7220616c6c000000602082015250565b600061320c603d8361293d565b9150613217826131b0565b604082019050919050565b6000602082019050818103600083015261323b816131ff565b9050919050565b60008190508160005260206000209050919050565b60006020601f8301049050919050565b600082821b905092915050565b6000600883026132a47fffffffffffffffffffffffffffffffffffffffffffffffffffffffffffffffff82613267565b6132ae8683613267565b95508019841693508086168417925050509392505050565b6000819050919050565b60006132eb6132e66132e1846129e4565b6132c6565b6129e4565b9050919050565b6000819050919050565b613305836132d0565b613319613311826132f2565b848454613274565b825550505050565b600090565b61332e613321565b6133398184846132fc565b505050565b5b8181101561335d57613352600082613326565b60018101905061333f565b5050565b601f8211156133a25761337381613242565b61337c84613257565b8101602085101561338b578190505b61339f61339785613257565b83018261333e565b50505b505050565b600082821c905092915050565b60006133c5600019846008026133a7565b1980831691505092915050565b60006133de83836133b4565b9150826002028217905092915050565b6133f782612932565b67ffffffffffffffff8111156134105761340f612b19565b5b61341a82546130ed565b613425828285613361565b600060209050601f8311600181146134585760008415613446578287015190505b61345085826133d2565b8655506134b8565b601f19841661346686613242565b60005b8281101561348e57848901518255600182019150602085019450602081019050613469565b868310156134ab57848901516134a7601f8916826133b4565b8355505b6001600288020188555050505b505050505050565b7f4552433732313a2063616c6c6572206973206e6f7420746f6b656e206f776e6560008201527f72206f7220617070726f76656400000000000000000000000000000000000000602082015250565b600061351c602d8361293d565b9150613527826134c0565b604082019050919050565b6000602082019050818103600083015261354b8161350f565b9050919050565b7f455243373231456e756d657261626c653a206f776e657220696e646578206f7560008201527f74206f6620626f756e6473000000000000000000000000000000000000000000602082015250565b60006135ae602b8361293d565b91506135b982613552565b604082019050919050565b600060208201905081810360008301526135dd816135a1565b9050919050565b7f455243373231456e756d657261626c653a20676c6f62616c20696e646578206f60008201527f7574206f6620626f756e64730000000000000000000000000000000000000000602082015250565b6000613640602c8361293d565b915061364b826135e4565b604082019050919050565b6000602082019050818103600083015261366f81613633565b9050919050565b7f4e487b7100000000000000000000000000000000000000000000000000000000600052603260045260246000fd5b7f4552433732313a20696e76616c696420746f6b656e2049440000000000000000600082015250565b60006136db60188361293d565b91506136e6826136a5565b602082019050919050565b6000602082019050818103600083015261370a816136ce565b9050919050565b7f4552433732313a2061646472657373207a65726f206973206e6f74206120766160008201527f6c6964206f776e65720000000000000000000000000000000000000000000000602082015250565b600061376d60298361293d565b915061377882613711565b604082019050919050565b6000602082019050818103600083015261379c81613760565b9050919050565b600081905092915050565b7f7b226e616d65223a202200000000000000000000000000000000000000000000600082015250565b60006137e4600a836137a3565b91506137ef826137ae565b600a82019050919050565b600061380582612932565b61380f81856137a3565b935061381f81856020860161294e565b80840191505092915050565b7f222c20226964223a202200000000000000000000000000000000000000000000600082015250565b6000613861600a836137a3565b915061386c8261382b565b600a82019050919050565b7f222c20226465736372697074696f6e223a2022222c2022696d616765223a202260008201527f697066733a2f2f00000000000000000000000000000000000000000000000000602082015250565b60006138d36027836137a3565b91506138de82613877565b602782019050919050565b7f222c20226361725f756e697175655f6964223a20220000000000000000000000600082015250565b600061391f6015836137a3565b915061392a826138e9565b601582019050919050565b7f222c202264616d6167654c6576656c223a202200000000000000000000000000600082015250565b600061396b6013836137a3565b915061397682613935565b601382019050919050565b7f222c20226f776e6572223a202200000000000000000000000000000000000000600082015250565b60006139b7600d836137a3565b91506139c282613981565b600d82019050919050565b7f222c2022637265617465645f74696d65223a2022000000000000000000000000600082015250565b6000613a036014836137a3565b9150613a0e826139cd565b601482019050919050565b7f227d000000000000000000000000000000000000000000000000000000000000600082015250565b6000613a4f6002836137a3565b9150613a5a82613a19565b600282019050919050565b6000613a70826137d7565b9150613a7c828a6137fa565b9150613a8782613854565b9150613a9382896137fa565b9150613a9e826138c6565b9150613aaa82886137fa565b9150613ab582613912565b9150613ac182876137fa565b9150613acc8261395e565b9150613ad882866137fa565b9150613ae3826139aa565b9150613aef82856137fa565b9150613afa826139f6565b9150613b0682846137fa565b9150613b1182613a42565b915081905098975050505050505050565b7f646174613a6170706c69636174696f6e2f6a736f6e3b6261736536342c000000600082015250565b6000613b58601d836137a3565b9150613b6382613b22565b601d82019050919050565b6000613b7982613b4b565b9150613b8582846137fa565b915081905092915050565b6000613b9c82846137fa565b915081905092915050565b60008154613bb4816130ed565b613bbe81866137a3565b94506001821660008114613bd95760018114613bee57613c21565b60ff1983168652811515820286019350613c21565b613bf785613242565b60005b83811015613c1957815481890152600182019150602081019050613bfa565b838801955050505b50505092915050565b6000613c368284613ba7565b915081905092915050565b7f4e487b7100000000000000000000000000000000000000000000000000000000600052601160045260246000fd5b6000613c7b826129e4565b91507fffffffffffffffffffffffffffffffffffffffffffffffffffffffffffffffff8203613cad57613cac613c41565b5b600182019050919050565b7f4552433732313a207472616e736665722066726f6d20696e636f72726563742060008201527f6f776e6572000000000000000000000000000000000000000000000000000000602082015250565b6000613d1460258361293d565b9150613d1f82613cb8565b604082019050919050565b60006020820190508181036000830152613d4381613d07565b9050919050565b7f4552433732313a207472616e7366657220746f20746865207a65726f2061646460008201527f7265737300000000000000000000000000000000000000000000000000000000602082015250565b6000613da660248361293d565b9150613db182613d4a565b604082019050919050565b60006020820190508181036000830152613dd581613d99565b9050919050565b7f4552433732313a20617070726f766520746f2063616c6c657200000000000000600082015250565b6000613e1260198361293d565b9150613e1d82613ddc565b602082019050919050565b60006020820190508181036000830152613e4181613e05565b9050919050565b7f4552433732313a207472616e7366657220746f206e6f6e20455243373231526560008201527f63656976657220696d706c656d656e7465720000000000000000000000000000602082015250565b6000613ea460328361293d565b9150613eaf82613e48565b604082019050919050565b60006020820190508181036000830152613ed381613e97565b9050919050565b7f4e487b7100000000000000000000000000000000000000000000000000000000600052601260045260246000fd5b6000613f14826129e4565b9150613f1f836129e4565b9250828202613f2d816129e4565b91508282048414831517613f4457613f43613c41565b5b5092915050565b6000613f56826129e4565b9150613f61836129e4565b9250828201905080821115613f7957613f78613c41565b5b92915050565b6000613f8a826129e4565b915060008203613f9d57613f9c613c41565b5b600182039050919050565b7f537472696e67733a20686578206c656e67746820696e73756666696369656e74600082015250565b6000613fde60208361293d565b9150613fe982613fa8565b602082019050919050565b6000602082019050818103600083015261400d81613fd1565b9050919050565b600061401f826129e4565b915061402a836129e4565b92508261403a57614039613eda565b5b828204905092915050565b7f455243373231456e756d657261626c653a20636f6e736563757469766520747260008201527f616e7366657273206e6f7420737570706f727465640000000000000000000000602082015250565b60006140a160358361293d565b91506140ac82614045565b604082019050919050565b600060208201905081810360008301526140d081614094565b9050919050565b600081519050919050565b600082825260208201905092915050565b60006140fe826140d7565b61410881856140e2565b935061411881856020860161294e565b61412181612978565b840191505092915050565b60006080820190506141416000830187612a79565b61414e6020830186612a79565b61415b6040830185612d1b565b818103606083015261416d81846140f3565b905095945050505050565b600081519050614187816128a3565b92915050565b6000602082840312156141a3576141a261286d565b5b60006141b184828501614178565b91505092915050565b7f4552433732313a206d696e7420746f20746865207a65726f2061646472657373600082015250565b60006141f060208361293d565b91506141fb826141ba565b602082019050919050565b6000602082019050818103600083015261421f816141e3565b9050919050565b7f4552433732313a20746f6b656e20616c7265616479206d696e74656400000000600082015250565b600061425c601c8361293d565b915061426782614226565b602082019050919050565b6000602082019050818103600083015261428b8161424f565b9050919050565b600061429d826129e4565b91506142a8836129e4565b92508282039050818111156142c0576142bf613c41565b5b92915050565b7f4e487b7100000000000000000000000000000000000000000000000000000000600052603160045260246000fdfe4142434445464748494a4b4c4d4e4f505152535455565758595a6162636465666768696a6b6c6d6e6f707172737475767778797a303132333435363738392b2fa26469706673582212205e6ac0df18d44d009e4a5d3dee5985aa491a862c506eb217ed742065f508890c64736f6c63430008110033",
  "linkReferences": {},
  "deployedLinkReferences": {}
}