{
  "_format": "hh-sol-artifact-1",
  "contractName": "Web3Mint",
  "sourceName": "contracts/Web3Mint.sol",
  "abi": [
    {
      "inputs": [],
      "stateMutability": "nonpayable",
      "type": "constructor"
    },
    {
      "anonymous": false,
      "inputs": [
        {
          "indexed": true,
          "internalType": "address",
          "name": "owner",
          "type": "address"
        },
        {
          "indexed": true,
          "internalType": "address",
          "name": "approved",
          "type": "address"
        },
        {
          "indexed": true,
          "internalType": "uint256",
          "name": "tokenId",
          "type": "uint256"
        }
      ],
      "name": "Approval",
      "type": "event"
    },
    {
      "anonymous": false,
      "inputs": [
        {
          "indexed": true,
          "internalType": "address",
          "name": "owner",
          "type": "address"
        },
        {
          "indexed": true,
          "internalType": "address",
          "name": "operator",
          "type": "address"
        },
        {
          "indexed": false,
          "internalType": "bool",
          "name": "approved",
          "type": "bool"
        }
      ],
      "name": "ApprovalForAll",
      "type": "event"
    },
    {
      "anonymous": false,
      "inputs": [
        {
          "indexed": true,
          "internalType": "address",
          "name": "from",
          "type": "address"
        },
        {
          "indexed": true,
          "internalType": "address",
          "name": "to",
          "type": "address"
        },
        {
          "indexed": true,
          "internalType": "uint256",
          "name": "tokenId",
          "type": "uint256"
        }
      ],
      "name": "Transfer",
      "type": "event"
    },
    {
      "inputs": [
        {
          "internalType": "address",
          "name": "to",
          "type": "address"
        },
        {
          "internalType": "uint256",
          "name": "tokenId",
          "type": "uint256"
        }
      ],
      "name": "approve",
      "outputs": [],
      "stateMutability": "nonpayable",
      "type": "function"
    },
    {
      "inputs": [
        {
          "internalType": "address",
          "name": "owner",
          "type": "address"
        }
      ],
      "name": "balanceOf",
      "outputs": [
        {
          "internalType": "uint256",
          "name": "",
          "type": "uint256"
        }
      ],
      "stateMutability": "view",
      "type": "function"
    },
    {
      "inputs": [
        {
          "internalType": "uint256",
          "name": "tokenId",
          "type": "uint256"
        }
      ],
      "name": "getApproved",
      "outputs": [
        {
          "internalType": "address",
          "name": "",
          "type": "address"
        }
      ],
      "stateMutability": "view",
      "type": "function"
    },
    {
      "inputs": [
        {
          "internalType": "address",
          "name": "owner",
          "type": "address"
        },
        {
          "internalType": "address",
          "name": "operator",
          "type": "address"
        }
      ],
      "name": "isApprovedForAll",
      "outputs": [
        {
          "internalType": "bool",
          "name": "",
          "type": "bool"
        }
      ],
      "stateMutability": "view",
      "type": "function"
    },
    {
      "inputs": [
        {
          "internalType": "string",
          "name": "name",
          "type": "string"
        },
        {
          "internalType": "string",
          "name": "imageURI",
          "type": "string"
        }
      ],
      "name": "mintIpfsNFT",
      "outputs": [],
      "stateMutability": "nonpayable",
      "type": "function"
    },
    {
      "inputs": [],
      "name": "name",
      "outputs": [
        {
          "internalType": "string",
          "name": "",
          "type": "string"
        }
      ],
      "stateMutability": "view",
      "type": "function"
    },
    {
      "inputs": [
        {
          "internalType": "uint256",
          "name": "tokenId",
          "type": "uint256"
        }
      ],
      "name": "ownerOf",
      "outputs": [
        {
          "internalType": "address",
          "name": "",
          "type": "address"
        }
      ],
      "stateMutability": "view",
      "type": "function"
    },
    {
      "inputs": [
        {
          "internalType": "address",
          "name": "from",
          "type": "address"
        },
        {
          "internalType": "address",
          "name": "to",
          "type": "address"
        },
        {
          "internalType": "uint256",
          "name": "tokenId",
          "type": "uint256"
        }
      ],
      "name": "safeTransferFrom",
      "outputs": [],
      "stateMutability": "nonpayable",
      "type": "function"
    },
    {
      "inputs": [
        {
          "internalType": "address",
          "name": "from",
          "type": "address"
        },
        {
          "internalType": "address",
          "name": "to",
          "type": "address"
        },
        {
          "internalType": "uint256",
          "name": "tokenId",
          "type": "uint256"
        },
        {
          "internalType": "bytes",
          "name": "data",
          "type": "bytes"
        }
      ],
      "name": "safeTransferFrom",
      "outputs": [],
      "stateMutability": "nonpayable",
      "type": "function"
    },
    {
      "inputs": [
        {
          "internalType": "address",
          "name": "operator",
          "type": "address"
        },
        {
          "internalType": "bool",
          "name": "approved",
          "type": "bool"
        }
      ],
      "name": "setApprovalForAll",
      "outputs": [],
      "stateMutability": "nonpayable",
      "type": "function"
    },
    {
      "inputs": [
        {
          "internalType": "bytes4",
          "name": "interfaceId",
          "type": "bytes4"
        }
      ],
      "name": "supportsInterface",
      "outputs": [
        {
          "internalType": "bool",
          "name": "",
          "type": "bool"
        }
      ],
      "stateMutability": "view",
      "type": "function"
    },
    {
      "inputs": [],
      "name": "symbol",
      "outputs": [
        {
          "internalType": "string",
          "name": "",
          "type": "string"
        }
      ],
      "stateMutability": "view",
      "type": "function"
    },
    {
      "inputs": [
        {
          "internalType": "uint256",
          "name": "index",
          "type": "uint256"
        }
      ],
      "name": "tokenByIndex",
      "outputs": [
        {
          "internalType": "uint256",
          "name": "",
          "type": "uint256"
        }
      ],
      "stateMutability": "view",
      "type": "function"
    },
    {
      "inputs": [
        {
          "internalType": "address",
          "name": "owner",
          "type": "address"
        },
        {
          "internalType": "uint256",
          "name": "index",
          "type": "uint256"
        }
      ],
      "name": "tokenOfOwnerByIndex",
      "outputs": [
        {
          "internalType": "uint256",
          "name": "",
          "type": "uint256"
        }
      ],
      "stateMutability": "view",
      "type": "function"
    },
    {
      "inputs": [
        {
          "internalType": "uint256",
          "name": "_tokenId",
          "type": "uint256"
        }
      ],
      "name": "tokenURI",
      "outputs": [
        {
          "internalType": "string",
          "name": "",
          "type": "string"
        }
      ],
      "stateMutability": "view",
      "type": "function"
    },
    {
      "inputs": [],
      "name": "totalSupply",
      "outputs": [
        {
          "internalType": "uint256",
          "name": "",
          "type": "uint256"
        }
      ],
      "stateMutability": "view",
      "type": "function"
    },
    {
      "inputs": [
        {
          "internalType": "address",
          "name": "from",
          "type": "address"
        },
        {
          "internalType": "address",
          "name": "to",
          "type": "address"
        },
        {
          "internalType": "uint256",
          "name": "tokenId",
          "type": "uint256"
        }
      ],
      "name": "transferFrom",
      "outputs": [],
      "stateMutability": "nonpayable",
      "type": "function"
    }
  ],
  "bytecode": "0x60806040523480156200001157600080fd5b506040518060400160405280600381526020017f4e465400000000000000000000000000000000000000000000000000000000008152506040518060400160405280600381526020017f6e6674000000000000000000000000000000000000000000000000000000000081525081600090816200008f919062000324565b508060019081620000a1919062000324565b5050506200040b565b600081519050919050565b7f4e487b7100000000000000000000000000000000000000000000000000000000600052604160045260246000fd5b7f4e487b7100000000000000000000000000000000000000000000000000000000600052602260045260246000fd5b600060028204905060018216806200012c57607f821691505b602082108103620001425762000141620000e4565b5b50919050565b60008190508160005260206000209050919050565b60006020601f8301049050919050565b600082821b905092915050565b600060088302620001ac7fffffffffffffffffffffffffffffffffffffffffffffffffffffffffffffffff826200016d565b620001b886836200016d565b95508019841693508086168417925050509392505050565b6000819050919050565b6000819050919050565b600062000205620001ff620001f984620001d0565b620001da565b620001d0565b9050919050565b6000819050919050565b6200022183620001e4565b6200023962000230826200020c565b8484546200017a565b825550505050565b600090565b6200025062000241565b6200025d81848462000216565b505050565b5b8181101562000285576200027960008262000246565b60018101905062000263565b5050565b601f821115620002d4576200029e8162000148565b620002a9846200015d565b81016020851015620002b9578190505b620002d1620002c8856200015d565b83018262000262565b50505b505050565b600082821c905092915050565b6000620002f960001984600802620002d9565b1980831691505092915050565b6000620003148383620002e6565b9150826002028217905092915050565b6200032f82620000aa565b67ffffffffffffffff8111156200034b576200034a620000b5565b5b62000357825462000113565b6200036482828562000289565b600060209050601f8311600181146200039c576000841562000387578287015190505b62000393858262000306565b86555062000403565b601f198416620003ac8662000148565b60005b82811015620003d657848901518255600182019150602085019450602081019050620003af565b86831015620003f65784890151620003f2601f891682620002e6565b8355505b6001600288020188555050505b505050505050565b61375b806200041b6000396000f3fe608060405234801561001057600080fd5b506004361061010b5760003560e01c80634f6ccce7116100a2578063a22cb46511610071578063a22cb465146102de578063b88d4fde146102fa578063c87b56dd14610316578063e985e9c514610346578063eb00195d146103765761010b565b80634f6ccce7146102305780636352211e1461026057806370a082311461029057806395d89b41146102c05761010b565b806318160ddd116100de57806318160ddd146101aa57806323b872dd146101c85780632f745c59146101e457806342842e0e146102145761010b565b806301ffc9a71461011057806306fdde0314610140578063081812fc1461015e578063095ea7b31461018e575b600080fd5b61012a600480360381019061012591906120e2565b610392565b604051610137919061212a565b60405180910390f35b61014861040c565b60405161015591906121d5565b60405180910390f35b6101786004803603810190610173919061222d565b61049e565b604051610185919061229b565b60405180910390f35b6101a860048036038101906101a391906122e2565b6104e4565b005b6101b26105fb565b6040516101bf9190612331565b60405180910390f35b6101e260048036038101906101dd919061234c565b610608565b005b6101fe60048036038101906101f991906122e2565b610668565b60405161020b9190612331565b60405180910390f35b61022e6004803603810190610229919061234c565b61070d565b005b61024a6004803603810190610245919061222d565b61072d565b6040516102579190612331565b60405180910390f35b61027a6004803603810190610275919061222d565b61079e565b604051610287919061229b565b60405180910390f35b6102aa60048036038101906102a5919061239f565b610824565b6040516102b79190612331565b60405180910390f35b6102c86108db565b6040516102d591906121d5565b60405180910390f35b6102f860048036038101906102f391906123f8565b61096d565b005b610314600480360381019061030f919061256d565b610983565b005b610330600480360381019061032b919061222d565b6109e5565b60405161033d91906121d5565b60405180910390f35b610360600480360381019061035b91906125f0565b610a95565b60405161036d919061212a565b60405180910390f35b610390600480360381019061038b91906126d1565b610b29565b005b60007f780e9d63000000000000000000000000000000000000000000000000000000007bffffffffffffffffffffffffffffffffffffffffffffffffffffffff1916827bffffffffffffffffffffffffffffffffffffffffffffffffffffffff19161480610405575061040482610bbe565b5b9050919050565b60606000805461041b90612778565b80601f016020809104026020016040519081016040528092919081815260200182805461044790612778565b80156104945780601f1061046957610100808354040283529160200191610494565b820191906000526020600020905b81548152906001019060200180831161047757829003601f168201915b5050505050905090565b60006104a982610ca0565b6004600083815260200190815260200160002060009054906101000a900473ffffffffffffffffffffffffffffffffffffffff169050919050565b60006104ef8261079e565b90508073ffffffffffffffffffffffffffffffffffffffff168373ffffffffffffffffffffffffffffffffffffffff160361055f576040517f08c379a00000000000000000000000000000000000000000000000000000000081526004016105569061281b565b60405180910390fd5b8073ffffffffffffffffffffffffffffffffffffffff1661057e610ceb565b73ffffffffffffffffffffffffffffffffffffffff1614806105ad57506105ac816105a7610ceb565b610a95565b5b6105ec576040517f08c379a00000000000000000000000000000000000000000000000000000000081526004016105e3906128ad565b60405180910390fd5b6105f68383610cf3565b505050565b6000600880549050905090565b610619610613610ceb565b82610dac565b610658576040517f08c379a000000000000000000000000000000000000000000000000000000000815260040161064f9061293f565b60405180910390fd5b610663838383610e41565b505050565b600061067383610824565b82106106b4576040517f08c379a00000000000000000000000000000000000000000000000000000000081526004016106ab906129d1565b60405180910390fd5b600660008473ffffffffffffffffffffffffffffffffffffffff1673ffffffffffffffffffffffffffffffffffffffff168152602001908152602001600020600083815260200190815260200160002054905092915050565b61072883838360405180602001604052806000815250610983565b505050565b60006107376105fb565b8210610778576040517f08c379a000000000000000000000000000000000000000000000000000000000815260040161076f90612a63565b60405180910390fd5b6008828154811061078c5761078b612a83565b5b90600052602060002001549050919050565b6000806107aa8361113a565b9050600073ffffffffffffffffffffffffffffffffffffffff168173ffffffffffffffffffffffffffffffffffffffff160361081b576040517f08c379a000000000000000000000000000000000000000000000000000000000815260040161081290612afe565b60405180910390fd5b80915050919050565b60008073ffffffffffffffffffffffffffffffffffffffff168273ffffffffffffffffffffffffffffffffffffffff1603610894576040517f08c379a000000000000000000000000000000000000000000000000000000000815260040161088b90612b90565b60405180910390fd5b600360008373ffffffffffffffffffffffffffffffffffffffff1673ffffffffffffffffffffffffffffffffffffffff168152602001908152602001600020549050919050565b6060600180546108ea90612778565b80601f016020809104026020016040519081016040528092919081815260200182805461091690612778565b80156109635780601f1061093857610100808354040283529160200191610963565b820191906000526020600020905b81548152906001019060200180831161094657829003601f168201915b5050505050905090565b61097f610978610ceb565b8383611177565b5050565b61099461098e610ceb565b83610dac565b6109d3576040517f08c379a00000000000000000000000000000000000000000000000000000000081526004016109ca9061293f565b60405180910390fd5b6109df848484846112e3565b50505050565b60606000610a65600b8481548110610a00576109ff612a83565b5b9060005260206000209060020201600001610a1a8561133f565b600b8681548110610a2e57610a2d612a83565b5b9060005260206000209060020201600101604051602001610a5193929190612dda565b60405160208183030381529060405261140d565b9050600081604051602001610a7a9190612e83565b60405160208183030381529060405290508092505050919050565b6000600560008473ffffffffffffffffffffffffffffffffffffffff1673ffffffffffffffffffffffffffffffffffffffff16815260200190815260200160002060008373ffffffffffffffffffffffffffffffffffffffff1673ffffffffffffffffffffffffffffffffffffffff16815260200190815260200160002060009054906101000a900460ff16905092915050565b6000610b35600a6115a4565b9050610b4133826115b2565b600b60405180604001604052808581526020018481525090806001815401808255809150506001900390600052602060002090600202016000909190919091506000820151816000019081610b96919061303c565b506020820151816001019081610bac919061303c565b505050610bb9600a6115d0565b505050565b60007f80ac58cd000000000000000000000000000000000000000000000000000000007bffffffffffffffffffffffffffffffffffffffffffffffffffffffff1916827bffffffffffffffffffffffffffffffffffffffffffffffffffffffff19161480610c8957507f5b5e139f000000000000000000000000000000000000000000000000000000007bffffffffffffffffffffffffffffffffffffffffffffffffffffffff1916827bffffffffffffffffffffffffffffffffffffffffffffffffffffffff1916145b80610c995750610c98826115e6565b5b9050919050565b610ca981611650565b610ce8576040517f08c379a0000000000000000000000000000000000000000000000000000000008152600401610cdf90612afe565b60405180910390fd5b50565b600033905090565b816004600083815260200190815260200160002060006101000a81548173ffffffffffffffffffffffffffffffffffffffff021916908373ffffffffffffffffffffffffffffffffffffffff160217905550808273ffffffffffffffffffffffffffffffffffffffff16610d668361079e565b73ffffffffffffffffffffffffffffffffffffffff167f8c5be1e5ebec7d5bd14f71427d1e84f3dd0314c0f7b2291e5b200ac8c7c3b92560405160405180910390a45050565b600080610db88361079e565b90508073ffffffffffffffffffffffffffffffffffffffff168473ffffffffffffffffffffffffffffffffffffffff161480610dfa5750610df98185610a95565b5b80610e3857508373ffffffffffffffffffffffffffffffffffffffff16610e208461049e565b73ffffffffffffffffffffffffffffffffffffffff16145b91505092915050565b8273ffffffffffffffffffffffffffffffffffffffff16610e618261079e565b73ffffffffffffffffffffffffffffffffffffffff1614610eb7576040517f08c379a0000000000000000000000000000000000000000000000000000000008152600401610eae90613180565b60405180910390fd5b600073ffffffffffffffffffffffffffffffffffffffff168273ffffffffffffffffffffffffffffffffffffffff1603610f26576040517f08c379a0000000000000000000000000000000000000000000000000000000008152600401610f1d90613212565b60405180910390fd5b610f338383836001611691565b8273ffffffffffffffffffffffffffffffffffffffff16610f538261079e565b73ffffffffffffffffffffffffffffffffffffffff1614610fa9576040517f08c379a0000000000000000000000000000000000000000000000000000000008152600401610fa090613180565b60405180910390fd5b6004600082815260200190815260200160002060006101000a81549073ffffffffffffffffffffffffffffffffffffffff02191690556001600360008573ffffffffffffffffffffffffffffffffffffffff1673ffffffffffffffffffffffffffffffffffffffff168152602001908152602001600020600082825403925050819055506001600360008473ffffffffffffffffffffffffffffffffffffffff1673ffffffffffffffffffffffffffffffffffffffff16815260200190815260200160002060008282540192505081905550816002600083815260200190815260200160002060006101000a81548173ffffffffffffffffffffffffffffffffffffffff021916908373ffffffffffffffffffffffffffffffffffffffff160217905550808273ffffffffffffffffffffffffffffffffffffffff168473ffffffffffffffffffffffffffffffffffffffff167fddf252ad1be2c89b69c2b068fc378daa952ba7f163c4a11628f55a4df523b3ef60405160405180910390a461113583838360016117ef565b505050565b60006002600083815260200190815260200160002060009054906101000a900473ffffffffffffffffffffffffffffffffffffffff169050919050565b8173ffffffffffffffffffffffffffffffffffffffff168373ffffffffffffffffffffffffffffffffffffffff16036111e5576040517f08c379a00000000000000000000000000000000000000000000000000000000081526004016111dc9061327e565b60405180910390fd5b80600560008573ffffffffffffffffffffffffffffffffffffffff1673ffffffffffffffffffffffffffffffffffffffff16815260200190815260200160002060008473ffffffffffffffffffffffffffffffffffffffff1673ffffffffffffffffffffffffffffffffffffffff16815260200190815260200160002060006101000a81548160ff0219169083151502179055508173ffffffffffffffffffffffffffffffffffffffff168373ffffffffffffffffffffffffffffffffffffffff167f17307eab39ab6107e8899845ad3d59bd9653f200f220920489ca2b5937696c31836040516112d6919061212a565b60405180910390a3505050565b6112ee848484610e41565b6112fa848484846117f5565b611339576040517f08c379a000000000000000000000000000000000000000000000000000000000815260040161133090613310565b60405180910390fd5b50505050565b60606000600161134e8461197c565b01905060008167ffffffffffffffff81111561136d5761136c612442565b5b6040519080825280601f01601f19166020018201604052801561139f5781602001600182028036833780820191505090505b509050600082602001820190505b600115611402578080600190039150507f3031323334353637383961626364656600000000000000000000000000000000600a86061a8153600a85816113f6576113f5613330565b5b049450600085036113ad575b819350505050919050565b606060008251905060008103611435576040518060200160405280600081525091505061159f565b60006003600283611446919061338e565b61145091906133c2565b600461145c91906133f3565b9050600060208261146d919061338e565b67ffffffffffffffff81111561148657611485612442565b5b6040519080825280601f01601f1916602001820160405280156114b85781602001600182028036833780820191505090505b50905060006040518060600160405280604081526020016136e6604091399050600181016020830160005b8681101561155c5760038101905062ffffff818a015116603f8160121c168401518060081b905060ff603f83600c1c1686015116810190508060081b905060ff603f8360061c1686015116810190508060081b905060ff603f831686015116810190508060e01b905080845260048401935050506114e3565b506003860660018114611576576002811461158657611591565b613d3d60f01b6002830352611591565b603d60f81b60018303525b508484525050819450505050505b919050565b600081600001549050919050565b6115cc828260405180602001604052806000815250611acf565b5050565b6001816000016000828254019250508190555050565b60007f01ffc9a7000000000000000000000000000000000000000000000000000000007bffffffffffffffffffffffffffffffffffffffffffffffffffffffff1916827bffffffffffffffffffffffffffffffffffffffffffffffffffffffff1916149050919050565b60008073ffffffffffffffffffffffffffffffffffffffff166116728361113a565b73ffffffffffffffffffffffffffffffffffffffff1614159050919050565b61169d84848484611b2a565b60018111156116e1576040517f08c379a00000000000000000000000000000000000000000000000000000000081526004016116d8906134a7565b60405180910390fd5b6000829050600073ffffffffffffffffffffffffffffffffffffffff168573ffffffffffffffffffffffffffffffffffffffff16036117285761172381611b30565b611767565b8373ffffffffffffffffffffffffffffffffffffffff168573ffffffffffffffffffffffffffffffffffffffff1614611766576117658582611b79565b5b5b600073ffffffffffffffffffffffffffffffffffffffff168473ffffffffffffffffffffffffffffffffffffffff16036117a9576117a481611ce6565b6117e8565b8473ffffffffffffffffffffffffffffffffffffffff168473ffffffffffffffffffffffffffffffffffffffff16146117e7576117e68482611db7565b5b5b5050505050565b50505050565b60006118168473ffffffffffffffffffffffffffffffffffffffff16611e36565b1561196f578373ffffffffffffffffffffffffffffffffffffffff1663150b7a0261183f610ceb565b8786866040518563ffffffff1660e01b8152600401611861949392919061351c565b6020604051808303816000875af192505050801561189d57506040513d601f19601f8201168201806040525081019061189a919061357d565b60015b61191f573d80600081146118cd576040519150601f19603f3d011682016040523d82523d6000602084013e6118d2565b606091505b506000815103611917576040517f08c379a000000000000000000000000000000000000000000000000000000000815260040161190e90613310565b60405180910390fd5b805181602001fd5b63150b7a0260e01b7bffffffffffffffffffffffffffffffffffffffffffffffffffffffff1916817bffffffffffffffffffffffffffffffffffffffffffffffffffffffff191614915050611974565b600190505b949350505050565b600080600090507a184f03e93ff9f4daa797ed6e38ed64bf6a1f01000000000000000083106119da577a184f03e93ff9f4daa797ed6e38ed64bf6a1f01000000000000000083816119d0576119cf613330565b5b0492506040810190505b6d04ee2d6d415b85acef81000000008310611a17576d04ee2d6d415b85acef81000000008381611a0d57611a0c613330565b5b0492506020810190505b662386f26fc100008310611a4657662386f26fc100008381611a3c57611a3b613330565b5b0492506010810190505b6305f5e1008310611a6f576305f5e1008381611a6557611a64613330565b5b0492506008810190505b6127108310611a94576127108381611a8a57611a89613330565b5b0492506004810190505b60648310611ab75760648381611aad57611aac613330565b5b0492506002810190505b600a8310611ac6576001810190505b80915050919050565b611ad98383611e59565b611ae660008484846117f5565b611b25576040517f08c379a0000000000000000000000000000000000000000000000000000000008152600401611b1c90613310565b60405180910390fd5b505050565b50505050565b6008805490506009600083815260200190815260200160002081905550600881908060018154018082558091505060019003906000526020600020016000909190919091505550565b60006001611b8684610824565b611b9091906135aa565b9050600060076000848152602001908152602001600020549050818114611c75576000600660008673ffffffffffffffffffffffffffffffffffffffff1673ffffffffffffffffffffffffffffffffffffffff168152602001908152602001600020600084815260200190815260200160002054905080600660008773ffffffffffffffffffffffffffffffffffffffff1673ffffffffffffffffffffffffffffffffffffffff168152602001908152602001600020600084815260200190815260200160002081905550816007600083815260200190815260200160002081905550505b6007600084815260200190815260200160002060009055600660008573ffffffffffffffffffffffffffffffffffffffff1673ffffffffffffffffffffffffffffffffffffffff16815260200190815260200160002060008381526020019081526020016000206000905550505050565b60006001600880549050611cfa91906135aa565b9050600060096000848152602001908152602001600020549050600060088381548110611d2a57611d29612a83565b5b906000526020600020015490508060088381548110611d4c57611d4b612a83565b5b906000526020600020018190555081600960008381526020019081526020016000208190555060096000858152602001908152602001600020600090556008805480611d9b57611d9a6135de565b5b6001900381819060005260206000200160009055905550505050565b6000611dc283610824565b905081600660008573ffffffffffffffffffffffffffffffffffffffff1673ffffffffffffffffffffffffffffffffffffffff168152602001908152602001600020600083815260200190815260200160002081905550806007600084815260200190815260200160002081905550505050565b6000808273ffffffffffffffffffffffffffffffffffffffff163b119050919050565b600073ffffffffffffffffffffffffffffffffffffffff168273ffffffffffffffffffffffffffffffffffffffff1603611ec8576040517f08c379a0000000000000000000000000000000000000000000000000000000008152600401611ebf90613659565b60405180910390fd5b611ed181611650565b15611f11576040517f08c379a0000000000000000000000000000000000000000000000000000000008152600401611f08906136c5565b60405180910390fd5b611f1f600083836001611691565b611f2881611650565b15611f68576040517f08c379a0000000000000000000000000000000000000000000000000000000008152600401611f5f906136c5565b60405180910390fd5b6001600360008473ffffffffffffffffffffffffffffffffffffffff1673ffffffffffffffffffffffffffffffffffffffff16815260200190815260200160002060008282540192505081905550816002600083815260200190815260200160002060006101000a81548173ffffffffffffffffffffffffffffffffffffffff021916908373ffffffffffffffffffffffffffffffffffffffff160217905550808273ffffffffffffffffffffffffffffffffffffffff16600073ffffffffffffffffffffffffffffffffffffffff167fddf252ad1be2c89b69c2b068fc378daa952ba7f163c4a11628f55a4df523b3ef60405160405180910390a46120726000838360016117ef565b5050565b6000604051905090565b600080fd5b600080fd5b60007fffffffff0000000000000000000000000000000000000000000000000000000082169050919050565b6120bf8161208a565b81146120ca57600080fd5b50565b6000813590506120dc816120b6565b92915050565b6000602082840312156120f8576120f7612080565b5b6000612106848285016120cd565b91505092915050565b60008115159050919050565b6121248161210f565b82525050565b600060208201905061213f600083018461211b565b92915050565b600081519050919050565b600082825260208201905092915050565b60005b8381101561217f578082015181840152602081019050612164565b60008484015250505050565b6000601f19601f8301169050919050565b60006121a782612145565b6121b18185612150565b93506121c1818560208601612161565b6121ca8161218b565b840191505092915050565b600060208201905081810360008301526121ef818461219c565b905092915050565b6000819050919050565b61220a816121f7565b811461221557600080fd5b50565b60008135905061222781612201565b92915050565b60006020828403121561224357612242612080565b5b600061225184828501612218565b91505092915050565b600073ffffffffffffffffffffffffffffffffffffffff82169050919050565b60006122858261225a565b9050919050565b6122958161227a565b82525050565b60006020820190506122b0600083018461228c565b92915050565b6122bf8161227a565b81146122ca57600080fd5b50565b6000813590506122dc816122b6565b92915050565b600080604083850312156122f9576122f8612080565b5b6000612307858286016122cd565b925050602061231885828601612218565b9150509250929050565b61232b816121f7565b82525050565b60006020820190506123466000830184612322565b92915050565b60008060006060848603121561236557612364612080565b5b6000612373868287016122cd565b9350506020612384868287016122cd565b925050604061239586828701612218565b9150509250925092565b6000602082840312156123b5576123b4612080565b5b60006123c3848285016122cd565b91505092915050565b6123d58161210f565b81146123e057600080fd5b50565b6000813590506123f2816123cc565b92915050565b6000806040838503121561240f5761240e612080565b5b600061241d858286016122cd565b925050602061242e858286016123e3565b9150509250929050565b600080fd5b600080fd5b7f4e487b7100000000000000000000000000000000000000000000000000000000600052604160045260246000fd5b61247a8261218b565b810181811067ffffffffffffffff8211171561249957612498612442565b5b80604052505050565b60006124ac612076565b90506124b88282612471565b919050565b600067ffffffffffffffff8211156124d8576124d7612442565b5b6124e18261218b565b9050602081019050919050565b82818337600083830152505050565b600061251061250b846124bd565b6124a2565b90508281526020810184848401111561252c5761252b61243d565b5b6125378482856124ee565b509392505050565b600082601f83011261255457612553612438565b5b81356125648482602086016124fd565b91505092915050565b6000806000806080858703121561258757612586612080565b5b6000612595878288016122cd565b94505060206125a6878288016122cd565b93505060406125b787828801612218565b925050606085013567ffffffffffffffff8111156125d8576125d7612085565b5b6125e48782880161253f565b91505092959194509250565b6000806040838503121561260757612606612080565b5b6000612615858286016122cd565b9250506020612626858286016122cd565b9150509250929050565b600067ffffffffffffffff82111561264b5761264a612442565b5b6126548261218b565b9050602081019050919050565b600061267461266f84612630565b6124a2565b9050828152602081018484840111156126905761268f61243d565b5b61269b8482856124ee565b509392505050565b600082601f8301126126b8576126b7612438565b5b81356126c8848260208601612661565b91505092915050565b600080604083850312156126e8576126e7612080565b5b600083013567ffffffffffffffff81111561270657612705612085565b5b612712858286016126a3565b925050602083013567ffffffffffffffff81111561273357612732612085565b5b61273f858286016126a3565b9150509250929050565b7f4e487b7100000000000000000000000000000000000000000000000000000000600052602260045260246000fd5b6000600282049050600182168061279057607f821691505b6020821081036127a3576127a2612749565b5b50919050565b7f4552433732313a20617070726f76616c20746f2063757272656e74206f776e6560008201527f7200000000000000000000000000000000000000000000000000000000000000602082015250565b6000612805602183612150565b9150612810826127a9565b604082019050919050565b60006020820190508181036000830152612834816127f8565b9050919050565b7f4552433732313a20617070726f76652063616c6c6572206973206e6f7420746f60008201527f6b656e206f776e6572206f7220617070726f76656420666f7220616c6c000000602082015250565b6000612897603d83612150565b91506128a28261283b565b604082019050919050565b600060208201905081810360008301526128c68161288a565b9050919050565b7f4552433732313a2063616c6c6572206973206e6f7420746f6b656e206f776e6560008201527f72206f7220617070726f76656400000000000000000000000000000000000000602082015250565b6000612929602d83612150565b9150612934826128cd565b604082019050919050565b600060208201905081810360008301526129588161291c565b9050919050565b7f455243373231456e756d657261626c653a206f776e657220696e646578206f7560008201527f74206f6620626f756e6473000000000000000000000000000000000000000000602082015250565b60006129bb602b83612150565b91506129c68261295f565b604082019050919050565b600060208201905081810360008301526129ea816129ae565b9050919050565b7f455243373231456e756d657261626c653a20676c6f62616c20696e646578206f60008201527f7574206f6620626f756e64730000000000000000000000000000000000000000602082015250565b6000612a4d602c83612150565b9150612a58826129f1565b604082019050919050565b60006020820190508181036000830152612a7c81612a40565b9050919050565b7f4e487b7100000000000000000000000000000000000000000000000000000000600052603260045260246000fd5b7f4552433732313a20696e76616c696420746f6b656e2049440000000000000000600082015250565b6000612ae8601883612150565b9150612af382612ab2565b602082019050919050565b60006020820190508181036000830152612b1781612adb565b9050919050565b7f4552433732313a2061646472657373207a65726f206973206e6f74206120766160008201527f6c6964206f776e65720000000000000000000000000000000000000000000000602082015250565b6000612b7a602983612150565b9150612b8582612b1e565b604082019050919050565b60006020820190508181036000830152612ba981612b6d565b9050919050565b600081905092915050565b7f7b226e616d65223a202200000000000000000000000000000000000000000000600082015250565b6000612bf1600a83612bb0565b9150612bfc82612bbb565b600a82019050919050565b60008190508160005260206000209050919050565b60008154612c2981612778565b612c338186612bb0565b94506001821660008114612c4e5760018114612c6357612c96565b60ff1983168652811515820286019350612c96565b612c6c85612c07565b60005b83811015612c8e57815481890152600182019150602081019050612c6f565b838801955050505b50505092915050565b7f202d2d204e465420233a20000000000000000000000000000000000000000000600082015250565b6000612cd5600b83612bb0565b9150612ce082612c9f565b600b82019050919050565b6000612cf682612145565b612d008185612bb0565b9350612d10818560208601612161565b80840191505092915050565b7f222c20226465736372697074696f6e223a2022416e2065706963204e4654222c60008201527f2022696d616765223a2022697066733a2f2f0000000000000000000000000000602082015250565b6000612d78603283612bb0565b9150612d8382612d1c565b603282019050919050565b7f227d000000000000000000000000000000000000000000000000000000000000600082015250565b6000612dc4600283612bb0565b9150612dcf82612d8e565b600282019050919050565b6000612de582612be4565b9150612df18286612c1c565b9150612dfc82612cc8565b9150612e088285612ceb565b9150612e1382612d6b565b9150612e1f8284612c1c565b9150612e2a82612db7565b9150819050949350505050565b7f646174613a6170706c69636174696f6e2f6a736f6e3b6261736536342c000000600082015250565b6000612e6d601d83612bb0565b9150612e7882612e37565b601d82019050919050565b6000612e8e82612e60565b9150612e9a8284612ceb565b915081905092915050565b60006020601f8301049050919050565b600082821b905092915050565b600060088302612ef27fffffffffffffffffffffffffffffffffffffffffffffffffffffffffffffffff82612eb5565b612efc8683612eb5565b95508019841693508086168417925050509392505050565b6000819050919050565b6000612f39612f34612f2f846121f7565b612f14565b6121f7565b9050919050565b6000819050919050565b612f5383612f1e565b612f67612f5f82612f40565b848454612ec2565b825550505050565b600090565b612f7c612f6f565b612f87818484612f4a565b505050565b5b81811015612fab57612fa0600082612f74565b600181019050612f8d565b5050565b601f821115612ff057612fc181612c07565b612fca84612ea5565b81016020851015612fd9578190505b612fed612fe585612ea5565b830182612f8c565b50505b505050565b600082821c905092915050565b600061301360001984600802612ff5565b1980831691505092915050565b600061302c8383613002565b9150826002028217905092915050565b61304582612145565b67ffffffffffffffff81111561305e5761305d612442565b5b6130688254612778565b613073828285612faf565b600060209050601f8311600181146130a65760008415613094578287015190505b61309e8582613020565b865550613106565b601f1984166130b486612c07565b60005b828110156130dc578489015182556001820191506020850194506020810190506130b7565b868310156130f957848901516130f5601f891682613002565b8355505b6001600288020188555050505b505050505050565b7f4552433732313a207472616e736665722066726f6d20696e636f72726563742060008201527f6f776e6572000000000000000000000000000000000000000000000000000000602082015250565b600061316a602583612150565b91506131758261310e565b604082019050919050565b600060208201905081810360008301526131998161315d565b9050919050565b7f4552433732313a207472616e7366657220746f20746865207a65726f2061646460008201527f7265737300000000000000000000000000000000000000000000000000000000602082015250565b60006131fc602483612150565b9150613207826131a0565b604082019050919050565b6000602082019050818103600083015261322b816131ef565b9050919050565b7f4552433732313a20617070726f766520746f2063616c6c657200000000000000600082015250565b6000613268601983612150565b915061327382613232565b602082019050919050565b600060208201905081810360008301526132978161325b565b9050919050565b7f4552433732313a207472616e7366657220746f206e6f6e20455243373231526560008201527f63656976657220696d706c656d656e7465720000000000000000000000000000602082015250565b60006132fa603283612150565b91506133058261329e565b604082019050919050565b60006020820190508181036000830152613329816132ed565b9050919050565b7f4e487b7100000000000000000000000000000000000000000000000000000000600052601260045260246000fd5b7f4e487b7100000000000000000000000000000000000000000000000000000000600052601160045260246000fd5b6000613399826121f7565b91506133a4836121f7565b92508282019050808211156133bc576133bb61335f565b5b92915050565b60006133cd826121f7565b91506133d8836121f7565b9250826133e8576133e7613330565b5b828204905092915050565b60006133fe826121f7565b9150613409836121f7565b9250828202613417816121f7565b9150828204841483151761342e5761342d61335f565b5b5092915050565b7f455243373231456e756d657261626c653a20636f6e736563757469766520747260008201527f616e7366657273206e6f7420737570706f727465640000000000000000000000602082015250565b6000613491603583612150565b915061349c82613435565b604082019050919050565b600060208201905081810360008301526134c081613484565b9050919050565b600081519050919050565b600082825260208201905092915050565b60006134ee826134c7565b6134f881856134d2565b9350613508818560208601612161565b6135118161218b565b840191505092915050565b6000608082019050613531600083018761228c565b61353e602083018661228c565b61354b6040830185612322565b818103606083015261355d81846134e3565b905095945050505050565b600081519050613577816120b6565b92915050565b60006020828403121561359357613592612080565b5b60006135a184828501613568565b91505092915050565b60006135b5826121f7565b91506135c0836121f7565b92508282039050818111156135d8576135d761335f565b5b92915050565b7f4e487b7100000000000000000000000000000000000000000000000000000000600052603160045260246000fd5b7f4552433732313a206d696e7420746f20746865207a65726f2061646472657373600082015250565b6000613643602083612150565b915061364e8261360d565b602082019050919050565b6000602082019050818103600083015261367281613636565b9050919050565b7f4552433732313a20746f6b656e20616c7265616479206d696e74656400000000600082015250565b60006136af601c83612150565b91506136ba82613679565b602082019050919050565b600060208201905081810360008301526136de816136a2565b905091905056fe4142434445464748494a4b4c4d4e4f505152535455565758595a6162636465666768696a6b6c6d6e6f707172737475767778797a303132333435363738392b2fa264697066735822122017bd4632f5605debd0824b37b584fb87f6895f004101b59601866016b9c2683e64736f6c63430008110033",
  "linkReferences": {},
  "deployedLinkReferences": {}
}