{
  "_format": "hh-sol-artifact-1",
  "contractName": "Web3Mint",
  "sourceName": "contracts/Web3Mint.sol",
  "abi": [
    {
      "inputs": [],
      "stateMutability": "nonpayable",
      "type": "constructor"
    },
    {
      "anonymous": false,
      "inputs": [
        {
          "indexed": true,
          "internalType": "address",
          "name": "owner",
          "type": "address"
        },
        {
          "indexed": true,
          "internalType": "address",
          "name": "approved",
          "type": "address"
        },
        {
          "indexed": true,
          "internalType": "uint256",
          "name": "tokenId",
          "type": "uint256"
        }
      ],
      "name": "Approval",
      "type": "event"
    },
    {
      "anonymous": false,
      "inputs": [
        {
          "indexed": true,
          "internalType": "address",
          "name": "owner",
          "type": "address"
        },
        {
          "indexed": true,
          "internalType": "address",
          "name": "operator",
          "type": "address"
        },
        {
          "indexed": false,
          "internalType": "bool",
          "name": "approved",
          "type": "bool"
        }
      ],
      "name": "ApprovalForAll",
      "type": "event"
    },
    {
      "anonymous": false,
      "inputs": [
        {
          "indexed": true,
          "internalType": "address",
          "name": "from",
          "type": "address"
        },
        {
          "indexed": true,
          "internalType": "address",
          "name": "to",
          "type": "address"
        },
        {
          "indexed": true,
          "internalType": "uint256",
          "name": "tokenId",
          "type": "uint256"
        }
      ],
      "name": "Transfer",
      "type": "event"
    },
    {
      "inputs": [
        {
          "internalType": "address",
          "name": "to",
          "type": "address"
        },
        {
          "internalType": "uint256",
          "name": "tokenId",
          "type": "uint256"
        }
      ],
      "name": "approve",
      "outputs": [],
      "stateMutability": "nonpayable",
      "type": "function"
    },
    {
      "inputs": [
        {
          "internalType": "address",
          "name": "owner",
          "type": "address"
        }
      ],
      "name": "balanceOf",
      "outputs": [
        {
          "internalType": "uint256",
          "name": "",
          "type": "uint256"
        }
      ],
      "stateMutability": "view",
      "type": "function"
    },
    {
      "inputs": [
        {
          "internalType": "uint256",
          "name": "tokenId",
          "type": "uint256"
        }
      ],
      "name": "getApproved",
      "outputs": [
        {
          "internalType": "address",
          "name": "",
          "type": "address"
        }
      ],
      "stateMutability": "view",
      "type": "function"
    },
    {
      "inputs": [
        {
          "internalType": "string",
          "name": "carId",
          "type": "string"
        }
      ],
      "name": "getTokensByCarId",
      "outputs": [
        {
          "internalType": "uint256[]",
          "name": "",
          "type": "uint256[]"
        }
      ],
      "stateMutability": "view",
      "type": "function"
    },
    {
      "inputs": [
        {
          "internalType": "address",
          "name": "owner",
          "type": "address"
        },
        {
          "internalType": "address",
          "name": "operator",
          "type": "address"
        }
      ],
      "name": "isApprovedForAll",
      "outputs": [
        {
          "internalType": "bool",
          "name": "",
          "type": "bool"
        }
      ],
      "stateMutability": "view",
      "type": "function"
    },
    {
      "inputs": [
        {
          "internalType": "string",
          "name": "name",
          "type": "string"
        },
        {
          "internalType": "string",
          "name": "imageURI",
          "type": "string"
        },
        {
          "internalType": "string",
          "name": "carId",
          "type": "string"
        }
      ],
      "name": "mintIpfsNFT",
      "outputs": [],
      "stateMutability": "nonpayable",
      "type": "function"
    },
    {
      "inputs": [],
      "name": "name",
      "outputs": [
        {
          "internalType": "string",
          "name": "",
          "type": "string"
        }
      ],
      "stateMutability": "view",
      "type": "function"
    },
    {
      "inputs": [
        {
          "internalType": "uint256",
          "name": "tokenId",
          "type": "uint256"
        }
      ],
      "name": "ownerOf",
      "outputs": [
        {
          "internalType": "address",
          "name": "",
          "type": "address"
        }
      ],
      "stateMutability": "view",
      "type": "function"
    },
    {
      "inputs": [
        {
          "internalType": "address",
          "name": "from",
          "type": "address"
        },
        {
          "internalType": "address",
          "name": "to",
          "type": "address"
        },
        {
          "internalType": "uint256",
          "name": "tokenId",
          "type": "uint256"
        }
      ],
      "name": "safeTransferFrom",
      "outputs": [],
      "stateMutability": "nonpayable",
      "type": "function"
    },
    {
      "inputs": [
        {
          "internalType": "address",
          "name": "from",
          "type": "address"
        },
        {
          "internalType": "address",
          "name": "to",
          "type": "address"
        },
        {
          "internalType": "uint256",
          "name": "tokenId",
          "type": "uint256"
        },
        {
          "internalType": "bytes",
          "name": "data",
          "type": "bytes"
        }
      ],
      "name": "safeTransferFrom",
      "outputs": [],
      "stateMutability": "nonpayable",
      "type": "function"
    },
    {
      "inputs": [
        {
          "internalType": "address",
          "name": "operator",
          "type": "address"
        },
        {
          "internalType": "bool",
          "name": "approved",
          "type": "bool"
        }
      ],
      "name": "setApprovalForAll",
      "outputs": [],
      "stateMutability": "nonpayable",
      "type": "function"
    },
    {
      "inputs": [
        {
          "internalType": "bytes4",
          "name": "interfaceId",
          "type": "bytes4"
        }
      ],
      "name": "supportsInterface",
      "outputs": [
        {
          "internalType": "bool",
          "name": "",
          "type": "bool"
        }
      ],
      "stateMutability": "view",
      "type": "function"
    },
    {
      "inputs": [],
      "name": "symbol",
      "outputs": [
        {
          "internalType": "string",
          "name": "",
          "type": "string"
        }
      ],
      "stateMutability": "view",
      "type": "function"
    },
    {
      "inputs": [
        {
          "internalType": "uint256",
          "name": "index",
          "type": "uint256"
        }
      ],
      "name": "tokenByIndex",
      "outputs": [
        {
          "internalType": "uint256",
          "name": "",
          "type": "uint256"
        }
      ],
      "stateMutability": "view",
      "type": "function"
    },
    {
      "inputs": [
        {
          "internalType": "address",
          "name": "owner",
          "type": "address"
        },
        {
          "internalType": "uint256",
          "name": "index",
          "type": "uint256"
        }
      ],
      "name": "tokenOfOwnerByIndex",
      "outputs": [
        {
          "internalType": "uint256",
          "name": "",
          "type": "uint256"
        }
      ],
      "stateMutability": "view",
      "type": "function"
    },
    {
      "inputs": [
        {
          "internalType": "uint256",
          "name": "_tokenId",
          "type": "uint256"
        }
      ],
      "name": "tokenURI",
      "outputs": [
        {
          "internalType": "string",
          "name": "",
          "type": "string"
        }
      ],
      "stateMutability": "view",
      "type": "function"
    },
    {
      "inputs": [],
      "name": "totalSupply",
      "outputs": [
        {
          "internalType": "uint256",
          "name": "",
          "type": "uint256"
        }
      ],
      "stateMutability": "view",
      "type": "function"
    },
    {
      "inputs": [
        {
          "internalType": "address",
          "name": "from",
          "type": "address"
        },
        {
          "internalType": "address",
          "name": "to",
          "type": "address"
        },
        {
          "internalType": "uint256",
          "name": "tokenId",
          "type": "uint256"
        }
      ],
      "name": "transferFrom",
      "outputs": [],
      "stateMutability": "nonpayable",
      "type": "function"
    }
  ],
  "bytecode": "0x60806040523480156200001157600080fd5b506040518060400160405280600381526020017f4e465400000000000000000000000000000000000000000000000000000000008152506040518060400160405280600381526020017f6e6674000000000000000000000000000000000000000000000000000000000081525081600090816200008f919062000324565b508060019081620000a1919062000324565b5050506200040b565b600081519050919050565b7f4e487b7100000000000000000000000000000000000000000000000000000000600052604160045260246000fd5b7f4e487b7100000000000000000000000000000000000000000000000000000000600052602260045260246000fd5b600060028204905060018216806200012c57607f821691505b602082108103620001425762000141620000e4565b5b50919050565b60008190508160005260206000209050919050565b60006020601f8301049050919050565b600082821b905092915050565b600060088302620001ac7fffffffffffffffffffffffffffffffffffffffffffffffffffffffffffffffff826200016d565b620001b886836200016d565b95508019841693508086168417925050509392505050565b6000819050919050565b6000819050919050565b600062000205620001ff620001f984620001d0565b620001da565b620001d0565b9050919050565b6000819050919050565b6200022183620001e4565b6200023962000230826200020c565b8484546200017a565b825550505050565b600090565b6200025062000241565b6200025d81848462000216565b505050565b5b8181101562000285576200027960008262000246565b60018101905062000263565b5050565b601f821115620002d4576200029e8162000148565b620002a9846200015d565b81016020851015620002b9578190505b620002d1620002c8856200015d565b83018262000262565b50505b505050565b600082821c905092915050565b6000620002f960001984600802620002d9565b1980831691505092915050565b6000620003148383620002e6565b9150826002028217905092915050565b6200032f82620000aa565b67ffffffffffffffff8111156200034b576200034a620000b5565b5b62000357825462000113565b6200036482828562000289565b600060209050601f8311600181146200039c576000841562000387578287015190505b62000393858262000306565b86555062000403565b601f198416620003ac8662000148565b60005b82811015620003d657848901518255600182019150602085019450602081019050620003af565b86831015620003f65784890151620003f2601f891682620002e6565b8355505b6001600288020188555050505b505050505050565b613bf0806200041b6000396000f3fe608060405234801561001057600080fd5b50600436106101165760003560e01c80634f6ccce7116100a2578063a22cb46511610071578063a22cb46514610305578063b88d4fde14610321578063c87b56dd1461033d578063ce9910f61461036d578063e985e9c51461039d57610116565b80634f6ccce7146102575780636352211e1461028757806370a08231146102b757806395d89b41146102e757610116565b8063138e1bdd116100e9578063138e1bdd146101b557806318160ddd146101d157806323b872dd146101ef5780632f745c591461020b57806342842e0e1461023b57610116565b806301ffc9a71461011b57806306fdde031461014b578063081812fc14610169578063095ea7b314610199575b600080fd5b61013560048036038101906101309190612345565b6103cd565b604051610142919061238d565b60405180910390f35b610153610447565b6040516101609190612438565b60405180910390f35b610183600480360381019061017e9190612490565b6104d9565b60405161019091906124fe565b60405180910390f35b6101b360048036038101906101ae9190612545565b61051f565b005b6101cf60048036038101906101ca91906126ba565b610636565b005b6101d96106f8565b6040516101e69190612770565b60405180910390f35b6102096004803603810190610204919061278b565b610705565b005b61022560048036038101906102209190612545565b610765565b6040516102329190612770565b60405180910390f35b6102556004803603810190610250919061278b565b61080a565b005b610271600480360381019061026c9190612490565b61082a565b60405161027e9190612770565b60405180910390f35b6102a1600480360381019061029c9190612490565b61089b565b6040516102ae91906124fe565b60405180910390f35b6102d160048036038101906102cc91906127de565b610921565b6040516102de9190612770565b60405180910390f35b6102ef6109d8565b6040516102fc9190612438565b60405180910390f35b61031f600480360381019061031a9190612837565b610a6a565b005b61033b60048036038101906103369190612918565b610a80565b005b61035760048036038101906103529190612490565b610ae2565b6040516103649190612438565b60405180910390f35b6103876004803603810190610382919061299b565b610bb8565b6040516103949190612aa2565b60405180910390f35b6103b760048036038101906103b29190612ac4565b610d8d565b6040516103c4919061238d565b60405180910390f35b60007f780e9d63000000000000000000000000000000000000000000000000000000007bffffffffffffffffffffffffffffffffffffffffffffffffffffffff1916827bffffffffffffffffffffffffffffffffffffffffffffffffffffffff19161480610440575061043f82610e21565b5b9050919050565b60606000805461045690612b33565b80601f016020809104026020016040519081016040528092919081815260200182805461048290612b33565b80156104cf5780601f106104a4576101008083540402835291602001916104cf565b820191906000526020600020905b8154815290600101906020018083116104b257829003601f168201915b5050505050905090565b60006104e482610f03565b6004600083815260200190815260200160002060009054906101000a900473ffffffffffffffffffffffffffffffffffffffff169050919050565b600061052a8261089b565b90508073ffffffffffffffffffffffffffffffffffffffff168373ffffffffffffffffffffffffffffffffffffffff160361059a576040517f08c379a000000000000000000000000000000000000000000000000000000000815260040161059190612bd6565b60405180910390fd5b8073ffffffffffffffffffffffffffffffffffffffff166105b9610f4e565b73ffffffffffffffffffffffffffffffffffffffff1614806105e857506105e7816105e2610f4e565b610d8d565b5b610627576040517f08c379a000000000000000000000000000000000000000000000000000000000815260040161061e90612c68565b60405180910390fd5b6106318383610f56565b505050565b6000610642600a61100f565b905061064e338261101d565b600b604051806080016040528086815260200185815260200184815260200142815250908060018154018082558091505060019003906000526020600020906004020160009091909190915060008201518160000190816106af9190612e34565b5060208201518160010190816106c59190612e34565b5060408201518160020190816106db9190612e34565b506060820151816003015550506106f2600a61103b565b50505050565b6000600880549050905090565b610716610710610f4e565b82611051565b610755576040517f08c379a000000000000000000000000000000000000000000000000000000000815260040161074c90612f78565b60405180910390fd5b6107608383836110e6565b505050565b600061077083610921565b82106107b1576040517f08c379a00000000000000000000000000000000000000000000000000000000081526004016107a89061300a565b60405180910390fd5b600660008473ffffffffffffffffffffffffffffffffffffffff1673ffffffffffffffffffffffffffffffffffffffff168152602001908152602001600020600083815260200190815260200160002054905092915050565b61082583838360405180602001604052806000815250610a80565b505050565b60006108346106f8565b8210610875576040517f08c379a000000000000000000000000000000000000000000000000000000000815260040161086c9061309c565b60405180910390fd5b60088281548110610889576108886130bc565b5b90600052602060002001549050919050565b6000806108a7836113df565b9050600073ffffffffffffffffffffffffffffffffffffffff168173ffffffffffffffffffffffffffffffffffffffff1603610918576040517f08c379a000000000000000000000000000000000000000000000000000000000815260040161090f90613137565b60405180910390fd5b80915050919050565b60008073ffffffffffffffffffffffffffffffffffffffff168273ffffffffffffffffffffffffffffffffffffffff1603610991576040517f08c379a0000000000000000000000000000000000000000000000000000000008152600401610988906131c9565b60405180910390fd5b600360008373ffffffffffffffffffffffffffffffffffffffff1673ffffffffffffffffffffffffffffffffffffffff168152602001908152602001600020549050919050565b6060600180546109e790612b33565b80601f0160208091040260200160405190810160405280929190818152602001828054610a1390612b33565b8015610a605780601f10610a3557610100808354040283529160200191610a60565b820191906000526020600020905b815481529060010190602001808311610a4357829003601f168201915b5050505050905090565b610a7c610a75610f4e565b838361141c565b5050565b610a91610a8b610f4e565b83611051565b610ad0576040517f08c379a0000000000000000000000000000000000000000000000000000000008152600401610ac790612f78565b60405180910390fd5b610adc84848484611588565b50505050565b60606000610b88600b8481548110610afd57610afc6130bc565b5b9060005260206000209060040201600001610b17856115e4565b600b8681548110610b2b57610b2a6130bc565b5b9060005260206000209060040201600101600b8781548110610b5057610b4f6130bc565b5b9060005260206000209060040201600201604051602001610b74949392919061344a565b6040516020818303038152906040526116b2565b9050600081604051602001610b9d919061350b565b60405160208183030381529060405290508092505050919050565b60606000610bc6600a61100f565b905060008167ffffffffffffffff811115610be457610be361258f565b5b604051908082528060200260200182016040528015610c125781602001602082028036833780820191505090505b5090506000805b83811015610cda5785604051602001610c32919061352d565b60405160208183030381529060405280519060200120600b8281548110610c5c57610c5b6130bc565b5b9060005260206000209060040201600201604051602001610c7d9190613544565b6040516020818303038152906040528051906020012003610cc75780838381518110610cac57610cab6130bc565b5b6020026020010181815250508180610cc39061358a565b9250505b8080610cd29061358a565b915050610c19565b5060008167ffffffffffffffff811115610cf757610cf661258f565b5b604051908082528060200260200182016040528015610d255781602001602082028036833780820191505090505b50905060005b82811015610d8057838181518110610d4657610d456130bc565b5b6020026020010151828281518110610d6157610d606130bc565b5b6020026020010181815250508080610d789061358a565b915050610d2b565b5080945050505050919050565b6000600560008473ffffffffffffffffffffffffffffffffffffffff1673ffffffffffffffffffffffffffffffffffffffff16815260200190815260200160002060008373ffffffffffffffffffffffffffffffffffffffff1673ffffffffffffffffffffffffffffffffffffffff16815260200190815260200160002060009054906101000a900460ff16905092915050565b60007f80ac58cd000000000000000000000000000000000000000000000000000000007bffffffffffffffffffffffffffffffffffffffffffffffffffffffff1916827bffffffffffffffffffffffffffffffffffffffffffffffffffffffff19161480610eec57507f5b5e139f000000000000000000000000000000000000000000000000000000007bffffffffffffffffffffffffffffffffffffffffffffffffffffffff1916827bffffffffffffffffffffffffffffffffffffffffffffffffffffffff1916145b80610efc5750610efb82611849565b5b9050919050565b610f0c816118b3565b610f4b576040517f08c379a0000000000000000000000000000000000000000000000000000000008152600401610f4290613137565b60405180910390fd5b50565b600033905090565b816004600083815260200190815260200160002060006101000a81548173ffffffffffffffffffffffffffffffffffffffff021916908373ffffffffffffffffffffffffffffffffffffffff160217905550808273ffffffffffffffffffffffffffffffffffffffff16610fc98361089b565b73ffffffffffffffffffffffffffffffffffffffff167f8c5be1e5ebec7d5bd14f71427d1e84f3dd0314c0f7b2291e5b200ac8c7c3b92560405160405180910390a45050565b600081600001549050919050565b6110378282604051806020016040528060008152506118f4565b5050565b6001816000016000828254019250508190555050565b60008061105d8361089b565b90508073ffffffffffffffffffffffffffffffffffffffff168473ffffffffffffffffffffffffffffffffffffffff16148061109f575061109e8185610d8d565b5b806110dd57508373ffffffffffffffffffffffffffffffffffffffff166110c5846104d9565b73ffffffffffffffffffffffffffffffffffffffff16145b91505092915050565b8273ffffffffffffffffffffffffffffffffffffffff166111068261089b565b73ffffffffffffffffffffffffffffffffffffffff161461115c576040517f08c379a000000000000000000000000000000000000000000000000000000000815260040161115390613644565b60405180910390fd5b600073ffffffffffffffffffffffffffffffffffffffff168273ffffffffffffffffffffffffffffffffffffffff16036111cb576040517f08c379a00000000000000000000000000000000000000000000000000000000081526004016111c2906136d6565b60405180910390fd5b6111d8838383600161194f565b8273ffffffffffffffffffffffffffffffffffffffff166111f88261089b565b73ffffffffffffffffffffffffffffffffffffffff161461124e576040517f08c379a000000000000000000000000000000000000000000000000000000000815260040161124590613644565b60405180910390fd5b6004600082815260200190815260200160002060006101000a81549073ffffffffffffffffffffffffffffffffffffffff02191690556001600360008573ffffffffffffffffffffffffffffffffffffffff1673ffffffffffffffffffffffffffffffffffffffff168152602001908152602001600020600082825403925050819055506001600360008473ffffffffffffffffffffffffffffffffffffffff1673ffffffffffffffffffffffffffffffffffffffff16815260200190815260200160002060008282540192505081905550816002600083815260200190815260200160002060006101000a81548173ffffffffffffffffffffffffffffffffffffffff021916908373ffffffffffffffffffffffffffffffffffffffff160217905550808273ffffffffffffffffffffffffffffffffffffffff168473ffffffffffffffffffffffffffffffffffffffff167fddf252ad1be2c89b69c2b068fc378daa952ba7f163c4a11628f55a4df523b3ef60405160405180910390a46113da8383836001611aad565b505050565b60006002600083815260200190815260200160002060009054906101000a900473ffffffffffffffffffffffffffffffffffffffff169050919050565b8173ffffffffffffffffffffffffffffffffffffffff168373ffffffffffffffffffffffffffffffffffffffff160361148a576040517f08c379a000000000000000000000000000000000000000000000000000000000815260040161148190613742565b60405180910390fd5b80600560008573ffffffffffffffffffffffffffffffffffffffff1673ffffffffffffffffffffffffffffffffffffffff16815260200190815260200160002060008473ffffffffffffffffffffffffffffffffffffffff1673ffffffffffffffffffffffffffffffffffffffff16815260200190815260200160002060006101000a81548160ff0219169083151502179055508173ffffffffffffffffffffffffffffffffffffffff168373ffffffffffffffffffffffffffffffffffffffff167f17307eab39ab6107e8899845ad3d59bd9653f200f220920489ca2b5937696c318360405161157b919061238d565b60405180910390a3505050565b6115938484846110e6565b61159f84848484611ab3565b6115de576040517f08c379a00000000000000000000000000000000000000000000000000000000081526004016115d5906137d4565b60405180910390fd5b50505050565b6060600060016115f384611c3a565b01905060008167ffffffffffffffff8111156116125761161161258f565b5b6040519080825280601f01601f1916602001820160405280156116445781602001600182028036833780820191505090505b509050600082602001820190505b6001156116a7578080600190039150507f3031323334353637383961626364656600000000000000000000000000000000600a86061a8153600a858161169b5761169a6137f4565b5b04945060008503611652575b819350505050919050565b6060600082519050600081036116da5760405180602001604052806000815250915050611844565b600060036002836116eb9190613823565b6116f59190613857565b60046117019190613888565b905060006020826117129190613823565b67ffffffffffffffff81111561172b5761172a61258f565b5b6040519080825280601f01601f19166020018201604052801561175d5781602001600182028036833780820191505090505b5090506000604051806060016040528060408152602001613b7b604091399050600181016020830160005b868110156118015760038101905062ffffff818a015116603f8160121c168401518060081b905060ff603f83600c1c1686015116810190508060081b905060ff603f8360061c1686015116810190508060081b905060ff603f831686015116810190508060e01b90508084526004840193505050611788565b50600386066001811461181b576002811461182b57611836565b613d3d60f01b6002830352611836565b603d60f81b60018303525b508484525050819450505050505b919050565b60007f01ffc9a7000000000000000000000000000000000000000000000000000000007bffffffffffffffffffffffffffffffffffffffffffffffffffffffff1916827bffffffffffffffffffffffffffffffffffffffffffffffffffffffff1916149050919050565b60008073ffffffffffffffffffffffffffffffffffffffff166118d5836113df565b73ffffffffffffffffffffffffffffffffffffffff1614159050919050565b6118fe8383611d8d565b61190b6000848484611ab3565b61194a576040517f08c379a0000000000000000000000000000000000000000000000000000000008152600401611941906137d4565b60405180910390fd5b505050565b61195b84848484611faa565b600181111561199f576040517f08c379a00000000000000000000000000000000000000000000000000000000081526004016119969061393c565b60405180910390fd5b6000829050600073ffffffffffffffffffffffffffffffffffffffff168573ffffffffffffffffffffffffffffffffffffffff16036119e6576119e181611fb0565b611a25565b8373ffffffffffffffffffffffffffffffffffffffff168573ffffffffffffffffffffffffffffffffffffffff1614611a2457611a238582611ff9565b5b5b600073ffffffffffffffffffffffffffffffffffffffff168473ffffffffffffffffffffffffffffffffffffffff1603611a6757611a6281612166565b611aa6565b8473ffffffffffffffffffffffffffffffffffffffff168473ffffffffffffffffffffffffffffffffffffffff1614611aa557611aa48482612237565b5b5b5050505050565b50505050565b6000611ad48473ffffffffffffffffffffffffffffffffffffffff166122b6565b15611c2d578373ffffffffffffffffffffffffffffffffffffffff1663150b7a02611afd610f4e565b8786866040518563ffffffff1660e01b8152600401611b1f94939291906139b1565b6020604051808303816000875af1925050508015611b5b57506040513d601f19601f82011682018060405250810190611b589190613a12565b60015b611bdd573d8060008114611b8b576040519150601f19603f3d011682016040523d82523d6000602084013e611b90565b606091505b506000815103611bd5576040517f08c379a0000000000000000000000000000000000000000000000000000000008152600401611bcc906137d4565b60405180910390fd5b805181602001fd5b63150b7a0260e01b7bffffffffffffffffffffffffffffffffffffffffffffffffffffffff1916817bffffffffffffffffffffffffffffffffffffffffffffffffffffffff191614915050611c32565b600190505b949350505050565b600080600090507a184f03e93ff9f4daa797ed6e38ed64bf6a1f0100000000000000008310611c98577a184f03e93ff9f4daa797ed6e38ed64bf6a1f0100000000000000008381611c8e57611c8d6137f4565b5b0492506040810190505b6d04ee2d6d415b85acef81000000008310611cd5576d04ee2d6d415b85acef81000000008381611ccb57611cca6137f4565b5b0492506020810190505b662386f26fc100008310611d0457662386f26fc100008381611cfa57611cf96137f4565b5b0492506010810190505b6305f5e1008310611d2d576305f5e1008381611d2357611d226137f4565b5b0492506008810190505b6127108310611d52576127108381611d4857611d476137f4565b5b0492506004810190505b60648310611d755760648381611d6b57611d6a6137f4565b5b0492506002810190505b600a8310611d84576001810190505b80915050919050565b600073ffffffffffffffffffffffffffffffffffffffff168273ffffffffffffffffffffffffffffffffffffffff1603611dfc576040517f08c379a0000000000000000000000000000000000000000000000000000000008152600401611df390613a8b565b60405180910390fd5b611e05816118b3565b15611e45576040517f08c379a0000000000000000000000000000000000000000000000000000000008152600401611e3c90613af7565b60405180910390fd5b611e5360008383600161194f565b611e5c816118b3565b15611e9c576040517f08c379a0000000000000000000000000000000000000000000000000000000008152600401611e9390613af7565b60405180910390fd5b6001600360008473ffffffffffffffffffffffffffffffffffffffff1673ffffffffffffffffffffffffffffffffffffffff16815260200190815260200160002060008282540192505081905550816002600083815260200190815260200160002060006101000a81548173ffffffffffffffffffffffffffffffffffffffff021916908373ffffffffffffffffffffffffffffffffffffffff160217905550808273ffffffffffffffffffffffffffffffffffffffff16600073ffffffffffffffffffffffffffffffffffffffff167fddf252ad1be2c89b69c2b068fc378daa952ba7f163c4a11628f55a4df523b3ef60405160405180910390a4611fa6600083836001611aad565b5050565b50505050565b6008805490506009600083815260200190815260200160002081905550600881908060018154018082558091505060019003906000526020600020016000909190919091505550565b6000600161200684610921565b6120109190613b17565b90506000600760008481526020019081526020016000205490508181146120f5576000600660008673ffffffffffffffffffffffffffffffffffffffff1673ffffffffffffffffffffffffffffffffffffffff168152602001908152602001600020600084815260200190815260200160002054905080600660008773ffffffffffffffffffffffffffffffffffffffff1673ffffffffffffffffffffffffffffffffffffffff168152602001908152602001600020600084815260200190815260200160002081905550816007600083815260200190815260200160002081905550505b6007600084815260200190815260200160002060009055600660008573ffffffffffffffffffffffffffffffffffffffff1673ffffffffffffffffffffffffffffffffffffffff16815260200190815260200160002060008381526020019081526020016000206000905550505050565b6000600160088054905061217a9190613b17565b90506000600960008481526020019081526020016000205490506000600883815481106121aa576121a96130bc565b5b9060005260206000200154905080600883815481106121cc576121cb6130bc565b5b90600052602060002001819055508160096000838152602001908152602001600020819055506009600085815260200190815260200160002060009055600880548061221b5761221a613b4b565b5b6001900381819060005260206000200160009055905550505050565b600061224283610921565b905081600660008573ffffffffffffffffffffffffffffffffffffffff1673ffffffffffffffffffffffffffffffffffffffff168152602001908152602001600020600083815260200190815260200160002081905550806007600084815260200190815260200160002081905550505050565b6000808273ffffffffffffffffffffffffffffffffffffffff163b119050919050565b6000604051905090565b600080fd5b600080fd5b60007fffffffff0000000000000000000000000000000000000000000000000000000082169050919050565b612322816122ed565b811461232d57600080fd5b50565b60008135905061233f81612319565b92915050565b60006020828403121561235b5761235a6122e3565b5b600061236984828501612330565b91505092915050565b60008115159050919050565b61238781612372565b82525050565b60006020820190506123a2600083018461237e565b92915050565b600081519050919050565b600082825260208201905092915050565b60005b838110156123e25780820151818401526020810190506123c7565b60008484015250505050565b6000601f19601f8301169050919050565b600061240a826123a8565b61241481856123b3565b93506124248185602086016123c4565b61242d816123ee565b840191505092915050565b6000602082019050818103600083015261245281846123ff565b905092915050565b6000819050919050565b61246d8161245a565b811461247857600080fd5b50565b60008135905061248a81612464565b92915050565b6000602082840312156124a6576124a56122e3565b5b60006124b48482850161247b565b91505092915050565b600073ffffffffffffffffffffffffffffffffffffffff82169050919050565b60006124e8826124bd565b9050919050565b6124f8816124dd565b82525050565b600060208201905061251360008301846124ef565b92915050565b612522816124dd565b811461252d57600080fd5b50565b60008135905061253f81612519565b92915050565b6000806040838503121561255c5761255b6122e3565b5b600061256a85828601612530565b925050602061257b8582860161247b565b9150509250929050565b600080fd5b600080fd5b7f4e487b7100000000000000000000000000000000000000000000000000000000600052604160045260246000fd5b6125c7826123ee565b810181811067ffffffffffffffff821117156125e6576125e561258f565b5b80604052505050565b60006125f96122d9565b905061260582826125be565b919050565b600067ffffffffffffffff8211156126255761262461258f565b5b61262e826123ee565b9050602081019050919050565b82818337600083830152505050565b600061265d6126588461260a565b6125ef565b9050828152602081018484840111156126795761267861258a565b5b61268484828561263b565b509392505050565b600082601f8301126126a1576126a0612585565b5b81356126b184826020860161264a565b91505092915050565b6000806000606084860312156126d3576126d26122e3565b5b600084013567ffffffffffffffff8111156126f1576126f06122e8565b5b6126fd8682870161268c565b935050602084013567ffffffffffffffff81111561271e5761271d6122e8565b5b61272a8682870161268c565b925050604084013567ffffffffffffffff81111561274b5761274a6122e8565b5b6127578682870161268c565b9150509250925092565b61276a8161245a565b82525050565b60006020820190506127856000830184612761565b92915050565b6000806000606084860312156127a4576127a36122e3565b5b60006127b286828701612530565b93505060206127c386828701612530565b92505060406127d48682870161247b565b9150509250925092565b6000602082840312156127f4576127f36122e3565b5b600061280284828501612530565b91505092915050565b61281481612372565b811461281f57600080fd5b50565b6000813590506128318161280b565b92915050565b6000806040838503121561284e5761284d6122e3565b5b600061285c85828601612530565b925050602061286d85828601612822565b9150509250929050565b600067ffffffffffffffff8211156128925761289161258f565b5b61289b826123ee565b9050602081019050919050565b60006128bb6128b684612877565b6125ef565b9050828152602081018484840111156128d7576128d661258a565b5b6128e284828561263b565b509392505050565b600082601f8301126128ff576128fe612585565b5b813561290f8482602086016128a8565b91505092915050565b60008060008060808587031215612932576129316122e3565b5b600061294087828801612530565b945050602061295187828801612530565b93505060406129628782880161247b565b925050606085013567ffffffffffffffff811115612983576129826122e8565b5b61298f878288016128ea565b91505092959194509250565b6000602082840312156129b1576129b06122e3565b5b600082013567ffffffffffffffff8111156129cf576129ce6122e8565b5b6129db8482850161268c565b91505092915050565b600081519050919050565b600082825260208201905092915050565b6000819050602082019050919050565b612a198161245a565b82525050565b6000612a2b8383612a10565b60208301905092915050565b6000602082019050919050565b6000612a4f826129e4565b612a5981856129ef565b9350612a6483612a00565b8060005b83811015612a95578151612a7c8882612a1f565b9750612a8783612a37565b925050600181019050612a68565b5085935050505092915050565b60006020820190508181036000830152612abc8184612a44565b905092915050565b60008060408385031215612adb57612ada6122e3565b5b6000612ae985828601612530565b9250506020612afa85828601612530565b9150509250929050565b7f4e487b7100000000000000000000000000000000000000000000000000000000600052602260045260246000fd5b60006002820490506001821680612b4b57607f821691505b602082108103612b5e57612b5d612b04565b5b50919050565b7f4552433732313a20617070726f76616c20746f2063757272656e74206f776e6560008201527f7200000000000000000000000000000000000000000000000000000000000000602082015250565b6000612bc06021836123b3565b9150612bcb82612b64565b604082019050919050565b60006020820190508181036000830152612bef81612bb3565b9050919050565b7f4552433732313a20617070726f76652063616c6c6572206973206e6f7420746f60008201527f6b656e206f776e6572206f7220617070726f76656420666f7220616c6c000000602082015250565b6000612c52603d836123b3565b9150612c5d82612bf6565b604082019050919050565b60006020820190508181036000830152612c8181612c45565b9050919050565b60008190508160005260206000209050919050565b60006020601f8301049050919050565b600082821b905092915050565b600060088302612cea7fffffffffffffffffffffffffffffffffffffffffffffffffffffffffffffffff82612cad565b612cf48683612cad565b95508019841693508086168417925050509392505050565b6000819050919050565b6000612d31612d2c612d278461245a565b612d0c565b61245a565b9050919050565b6000819050919050565b612d4b83612d16565b612d5f612d5782612d38565b848454612cba565b825550505050565b600090565b612d74612d67565b612d7f818484612d42565b505050565b5b81811015612da357612d98600082612d6c565b600181019050612d85565b5050565b601f821115612de857612db981612c88565b612dc284612c9d565b81016020851015612dd1578190505b612de5612ddd85612c9d565b830182612d84565b50505b505050565b600082821c905092915050565b6000612e0b60001984600802612ded565b1980831691505092915050565b6000612e248383612dfa565b9150826002028217905092915050565b612e3d826123a8565b67ffffffffffffffff811115612e5657612e5561258f565b5b612e608254612b33565b612e6b828285612da7565b600060209050601f831160018114612e9e5760008415612e8c578287015190505b612e968582612e18565b865550612efe565b601f198416612eac86612c88565b60005b82811015612ed457848901518255600182019150602085019450602081019050612eaf565b86831015612ef15784890151612eed601f891682612dfa565b8355505b6001600288020188555050505b505050505050565b7f4552433732313a2063616c6c6572206973206e6f7420746f6b656e206f776e6560008201527f72206f7220617070726f76656400000000000000000000000000000000000000602082015250565b6000612f62602d836123b3565b9150612f6d82612f06565b604082019050919050565b60006020820190508181036000830152612f9181612f55565b9050919050565b7f455243373231456e756d657261626c653a206f776e657220696e646578206f7560008201527f74206f6620626f756e6473000000000000000000000000000000000000000000602082015250565b6000612ff4602b836123b3565b9150612fff82612f98565b604082019050919050565b6000602082019050818103600083015261302381612fe7565b9050919050565b7f455243373231456e756d657261626c653a20676c6f62616c20696e646578206f60008201527f7574206f6620626f756e64730000000000000000000000000000000000000000602082015250565b6000613086602c836123b3565b91506130918261302a565b604082019050919050565b600060208201905081810360008301526130b581613079565b9050919050565b7f4e487b7100000000000000000000000000000000000000000000000000000000600052603260045260246000fd5b7f4552433732313a20696e76616c696420746f6b656e2049440000000000000000600082015250565b60006131216018836123b3565b915061312c826130eb565b602082019050919050565b6000602082019050818103600083015261315081613114565b9050919050565b7f4552433732313a2061646472657373207a65726f206973206e6f74206120766160008201527f6c6964206f776e65720000000000000000000000000000000000000000000000602082015250565b60006131b36029836123b3565b91506131be82613157565b604082019050919050565b600060208201905081810360008301526131e2816131a6565b9050919050565b600081905092915050565b7f7b226e616d65223a202200000000000000000000000000000000000000000000600082015250565b600061322a600a836131e9565b9150613235826131f4565b600a82019050919050565b6000815461324d81612b33565b61325781866131e9565b945060018216600081146132725760018114613287576132ba565b60ff19831686528115158202860193506132ba565b61329085612c88565b60005b838110156132b257815481890152600182019150602081019050613293565b838801955050505b50505092915050565b7f222c20226964223a202200000000000000000000000000000000000000000000600082015250565b60006132f9600a836131e9565b9150613304826132c3565b600a82019050919050565b600061331a826123a8565b61332481856131e9565b93506133348185602086016123c4565b80840191505092915050565b7f222c20226465736372697074696f6e223a2022222c2022696d616765223a202260008201527f697066733a2f2f00000000000000000000000000000000000000000000000000602082015250565b600061339c6027836131e9565b91506133a782613340565b602782019050919050565b7f222c20226361725f756e697175655f6964223a20220000000000000000000000600082015250565b60006133e86015836131e9565b91506133f3826133b2565b601582019050919050565b7f227d000000000000000000000000000000000000000000000000000000000000600082015250565b60006134346002836131e9565b915061343f826133fe565b600282019050919050565b60006134558261321d565b91506134618287613240565b915061346c826132ec565b9150613478828661330f565b91506134838261338f565b915061348f8285613240565b915061349a826133db565b91506134a68284613240565b91506134b182613427565b915081905095945050505050565b7f646174613a6170706c69636174696f6e2f6a736f6e3b6261736536342c000000600082015250565b60006134f5601d836131e9565b9150613500826134bf565b601d82019050919050565b6000613516826134e8565b9150613522828461330f565b915081905092915050565b6000613539828461330f565b915081905092915050565b60006135508284613240565b915081905092915050565b7f4e487b7100000000000000000000000000000000000000000000000000000000600052601160045260246000fd5b60006135958261245a565b91507fffffffffffffffffffffffffffffffffffffffffffffffffffffffffffffffff82036135c7576135c661355b565b5b600182019050919050565b7f4552433732313a207472616e736665722066726f6d20696e636f72726563742060008201527f6f776e6572000000000000000000000000000000000000000000000000000000602082015250565b600061362e6025836123b3565b9150613639826135d2565b604082019050919050565b6000602082019050818103600083015261365d81613621565b9050919050565b7f4552433732313a207472616e7366657220746f20746865207a65726f2061646460008201527f7265737300000000000000000000000000000000000000000000000000000000602082015250565b60006136c06024836123b3565b91506136cb82613664565b604082019050919050565b600060208201905081810360008301526136ef816136b3565b9050919050565b7f4552433732313a20617070726f766520746f2063616c6c657200000000000000600082015250565b600061372c6019836123b3565b9150613737826136f6565b602082019050919050565b6000602082019050818103600083015261375b8161371f565b9050919050565b7f4552433732313a207472616e7366657220746f206e6f6e20455243373231526560008201527f63656976657220696d706c656d656e7465720000000000000000000000000000602082015250565b60006137be6032836123b3565b91506137c982613762565b604082019050919050565b600060208201905081810360008301526137ed816137b1565b9050919050565b7f4e487b7100000000000000000000000000000000000000000000000000000000600052601260045260246000fd5b600061382e8261245a565b91506138398361245a565b92508282019050808211156138515761385061355b565b5b92915050565b60006138628261245a565b915061386d8361245a565b92508261387d5761387c6137f4565b5b828204905092915050565b60006138938261245a565b915061389e8361245a565b92508282026138ac8161245a565b915082820484148315176138c3576138c261355b565b5b5092915050565b7f455243373231456e756d657261626c653a20636f6e736563757469766520747260008201527f616e7366657273206e6f7420737570706f727465640000000000000000000000602082015250565b60006139266035836123b3565b9150613931826138ca565b604082019050919050565b6000602082019050818103600083015261395581613919565b9050919050565b600081519050919050565b600082825260208201905092915050565b60006139838261395c565b61398d8185613967565b935061399d8185602086016123c4565b6139a6816123ee565b840191505092915050565b60006080820190506139c660008301876124ef565b6139d360208301866124ef565b6139e06040830185612761565b81810360608301526139f28184613978565b905095945050505050565b600081519050613a0c81612319565b92915050565b600060208284031215613a2857613a276122e3565b5b6000613a36848285016139fd565b91505092915050565b7f4552433732313a206d696e7420746f20746865207a65726f2061646472657373600082015250565b6000613a756020836123b3565b9150613a8082613a3f565b602082019050919050565b60006020820190508181036000830152613aa481613a68565b9050919050565b7f4552433732313a20746f6b656e20616c7265616479206d696e74656400000000600082015250565b6000613ae1601c836123b3565b9150613aec82613aab565b602082019050919050565b60006020820190508181036000830152613b1081613ad4565b9050919050565b6000613b228261245a565b9150613b2d8361245a565b9250828203905081811115613b4557613b4461355b565b5b92915050565b7f4e487b7100000000000000000000000000000000000000000000000000000000600052603160045260246000fdfe4142434445464748494a4b4c4d4e4f505152535455565758595a6162636465666768696a6b6c6d6e6f707172737475767778797a303132333435363738392b2fa2646970667358221220780d20be990d8f04ef39d152dbde48fe26366f7cd222ba3f61a1e9589897c66564736f6c63430008110033",
  "linkReferences": {},
  "deployedLinkReferences": {}
}